:020000040800F2
:10000000501B002001010008ED6F0008ED390008C9
:10001000E96F00083D100008758600080000000028
:10002000000000000000000000000000A1790008AE
:100030008110000800000000897400089D7A000803
:100040001B0100081B0100081B0100081B01000820
:100050001B0100081B0100081B0100081B01000810
:100060001B0100081B0100081B0100081B01000800
:100070001B0100081B0100081B0100081B010008F0
:10008000791000081B0100081B01000819800008F6
:10009000218000081B0100081B010008D110000886
:1000A0001B0100084D7B00081B0100081B01000814
:1000B0001B0100081B0100081B010008F1390008A2
:1000C0001B0100081B0100081B0100081B010008A0
:1000D0001B010008E17B0008497D0008B17E000893
:1000E0001B0100081B0100081B010008DFF80CD0F1
:1000F00000F0D6FA00480047718F0008501B00201E
:100100000648804706480047FEE7FEE7FEE7FEE7B1
:10011000FEE7FEE7FEE7FEE7FEE7FEE7497B0008B5
:10012000ED000008034611F8012B00F8012B002A0E
:10013000F9D11846704730B50B4601460020202201
:10014000012409E021FA02F59D4205D303FA02F5E4
:10015000491B04FA02F52844151EA2F10102F1DC44
:1001600030BD2DE9F05F0546002092469B4688464B
:100170000646814640241BE0284641464746224623
:1001800000F0AFFA53465A46C01A914110D31146B7
:100190001846224600F096FA2D1A67EB01084F46E2
:1001A00022460120002100F08DFA17EB00094E4194
:1001B000201EA4F10104DFDC484631462A464346AE
:1001C000BDE8F09F40EA01039B0703D009E008C99E
:1001D000121F08C0042AFAD203E011F8013B00F80C
:1001E000013B521EF9D27047F0B480EA0102D40FED
:1001F0004200B2EB410F02D20246084611464A00C5
:1002000042D0C30DDDB2C1F3C752AD1A202D35DA8D
:10021000C1F3160141F4000204B15242C5F12006B7
:1002200002FA06F12A411044B3EBD05F23D0C4B1E7
:10023000012DA0EBC35009DCF0BC4FF0004202EAF4
:10024000C352DBB200F5000000F076BA400000F1C6
:10025000807000EBC350A0F1807040EAD17049007B
:1002600009E0490841EAC071A0EBC35000F5000065
:10027000400800EBC350F0BC00F055BA61420122C7
:1002800002EB4101001BF6E7F0BC704781F0004132
:10029000AAE780F00040A7E780EA010210B502F06B
:1002A0000043400022D04A001FD0010E01EB126132
:1002B000C0F35600C2F3560240F4000042F40002BC
:1002C000A0FB022000047F39140400D0401C50EA37
:1002D000124001D44000491EC2B20C0604EBD010FB
:1002E000401C4008802A02D003E0002010BD20F00E
:1002F0000100002900DA0020184310BD2DE9FE4F4F
:10030000804681EA0300C00F0C46009021F00041B6
:1003100023F00045B8EB0200A94105D24046214632
:1003200090461C460B46024623F00040104347D03F
:10033000270DC7F30A00C3F30A510290401A019037
:1003400040286BDAC3F3130040F4801B00989246F8
:1003500020B10023D2EB030A63EB0B0B0198594643
:10036000C0F14002504600F0ADF906460D46504639
:100370005946019A00F0C5F910EB080061410024CC
:1003800087EA115284EAE7731A4340D0009A62B3B5
:10039000019A012A4FEA075215DC001B61EB0201AA
:1003A0004FF0004202EA0752CDE90042001C41F53D
:1003B000801132462B4600F0FCF903B0BDE8F08F07
:1003C00040462146F9E7001B61EB0201001C41F5A4
:1003D000801300185B412018A2F5001747EB0301BA
:1003E00040EAD570B6196D4111E06D084FEA360646
:1003F00045EAC0754FEA0752001B61EB0201001C81
:1004000041F5801149084FEA300000195141324648
:100410002B4603B0BDE8F04F00F0BCB900980122B4
:1004200040000023D0EB020263EBE073009821460A
:100430004FEAE074B8EB000061EB0401E9E783F0F8
:1004400000435BE781F0004158E72DE9FE4F81EA68
:10045000030404F0004421F0004100944FF0000B2D
:1004600023F0004350EA01045ED052EA03045BD05B
:10047000C3F30A54C1F30A552C44A4F2F334019493
:10048000A0FB0254C1F3130141F48011C3F3130321
:1004900043F4801301FB024400FB034E840A970AD5
:1004A00044EA815447EA8357A4FB076802958D0A02
:1004B00005FB07854FEA932C04FB0C542705029D8E
:1004C0004FEA065847EA1637B5EB08056EEB070CFE
:1004D000870E920E47EA811742EA8312A7FB0201B8
:1004E000B6EB0B0164EB00042B0D43EA0C335E18F2
:1004F00044EB1C50DA465146E7FB0201C5F31304F6
:100500004FEA0B3343EA14534FEA0432019C43EAA7
:100510000603A4F10C040294009CCDE900B400F0A1
:1005200048F903B0BDE8F08F00200146F9E72DE956
:10053000F04D81EA030404F0004B21F0004514461D
:100540004FF0000A23F0004150EA050220D054EA9F
:1005500001021DD0C5F30A570246C5F31303C1F3C8
:100560001300C1F30A5640F4801543F48013A7EB3F
:100570000608101BD64608F2FD3873EB050002D3BF
:1005800008F1010801E092185B41B8F1000F03DAAD
:1005900000200146BDE8F08D00204FF48011064692
:1005A00084460EE0171B73EB050705D3121B63EBA4
:1005B000050306434CEA010C49084FEA3000921843
:1005C0005B4150EA0107EDD152EA030012D082EA02
:1005D000040083EA0501084305D0101BAB4106D295
:1005E0000122002306E000224FF0004302E06FF0FA
:1005F000010253101AEB06004CEB085110EB0A00F5
:1006000041EB0B01BDE8F04D00F0C4B800F0004232
:1006100020F00040C10DC0F3160040F400007F2917
:1006200001DA00207047962903DCC1F19601C84029
:1006300001E096398840002AF4D040427047C1F367
:100640000A52C1F3130140F2FF3341F480119A4280
:1006500002DA00200146704740F233439A42A2F288
:10066000334202DC524200F03CB800F02BB80000EC
:1006700030B5041E71F1000404DB4FF00044404229
:1006800064EB0101141E73F1000405DB1C464FF0FE
:100690000043524263EB0403994208BF904230BDCD
:1006A000064C074D06E0E06840F0010394E80700BF
:1006B00098471034AC42F6D3FFF71CFDE09E0008CB
:1006C000009F0008202A04DB203A00FA02F10020F3
:1006D00070479140C2F1200320FA03F31943904080
:1006E0007047202A04DB203A21FA02F000217047EB
:1006F00021FA02F3D040C2F120029140084319468A
:100700007047202A06DBCB17203A41FA02F043EA71
:10071000E07306E041FA02F3D040C2F120029140BA
:100720000843194670470029A8BF7047401C49007C
:1007300008BF20F00100704710B4B0FA80FC00FA46
:100740000CF050EA010404BF10BC704749B1CCF171
:10075000200421FA04F411FA0CF118BF01212143FD
:100760000843A3EB0C01CB1D4FEA00614FEA1020B8
:1007700042BF002010BC704700EBC350104400295A
:10078000A4BF10BC7047401C490008BF20F0010006
:1007900010BC704710B5141E73F1000408DA401C39
:1007A00041F1000192185B411A4301D120F0010090
:1007B00010BD2DE9F04D92469B4611B1B1FA81F280
:1007C00002E0B0FA80F220329046FFF77BFF044649
:1007D0000F4640EA0A0041EA0B0153465A460843D5
:1007E00013D0114653EA010019D0C8F14002504617
:1007F000FFF777FF05460E46504659464246FFF73B
:1008000061FF084305D0012004E020463946BDE8D9
:10081000F08D0020054346EAE0762C4337430A98E2
:100820006305E40AA0EB08000022FD0A44EA4754ED
:100830000A3002D500200146E9E701051019694197
:10084000DDE9084500196941BDE8F04DA2E7D2B2E3
:1008500001E000F8012B491EFBD270470022F6E7A9
:1008600010B513460A4604461946FFF7F0FF204626
:1008700010BD002801DBC0F10040002901DBC1F1FF
:100880000041814201D201207047002070470028BA
:1008900001DBC0F10040002901DBC1F100418142D0
:1008A00001D901207047002070479623002211468D
:1008B000FFF742BF80B507F00BF907F073F849F670
:1008C0004651C0F60001002008F0A0FC04F018FB1F
:1008D00000F008FB47F6BD10C0F6000008F0A2F9D2
:1008E00040F6F500C0F6000008F09CF9FFE708F0BC
:1008F00077F9FCE780B508F0A7FA28B9FFE704F01C
:1009000075FF08F0ADFAFFE704F01EFB80BD0000A4
:10091000B0B586B000240594049403940294019425
:10092000102005F023F80125012000F023F82020F5
:10093000C0F2204001900295032003900494059595
:1009400041F20000C4F2010001AC214605F0C0F9FB
:10095000042005F00BF8022000F00CF840F2011022
:10096000019040F60000C4F20100214605F0B0F904
:1009700006B0B0BD80B582B001900198012803D0C7
:10098000FFE702280AD012E041F20000C4F20100A1
:100990002021C0F2204105F01BFA09E040F60000DA
:1009A000C4F2010040F2011105F012FA00E0FFE785
:1009B00002B080BD80B582B001200190019801286D
:1009C00003D0FFE702280AD012E041F20000C4F28F
:1009D00001002021C0F2204105F09CFA09E040F618
:1009E0000000C4F2010040F2011105F093FA00E0AA
:1009F000FFE702B080BD000080B582B040F2080081
:100A0000C2F2000000900098007D20B1FFE700983E
:100A1000C07F18B9FFE70020019005E00098007D35
:100A200007F002FB0190FFE7019802B080BD0000D3
:100A300080B582B001900198007858B9FFE701991C
:100A40004868896805F0B0F90199C868096905F036
:100A5000ABF9FFE702B080BD80B582B0019001988C
:100A6000007858B9FFE701994868896805F0BAF934
:100A70000199C868096905F0B5F9FFE702B080BDC2
:100A800010B58AB040F20800C2F2000009900024BC
:100A9000089407940694059404940998406802F019
:100AA00087FD0998C06802F083FD09994868896844
:100AB00005F07AF90999C868096905F075F9032004
:100AC0000690079401200590089409988068049086
:100AD0000998406804AC214605F0FAF809980069C5
:100AE00004900998C068214605F0F2F8099800784A
:100AF00060B9FFE70998FFF79BFF40F63121C0F688
:100B00000001099A107D07F073FC1DE00998007838
:100B1000012811D1FFE709994868896805F062F951
:100B20000999C868096905F03FF90998007D002115
:100B3000002207F05DFC06E00998007D00210022FC
:100B400007F056FCFFE7FFE70020039002900190BA
:100B50000998407F072803D1FFE7002003900CE0AD
:100B60000998407F092804D1FFE74FF48050039093
:100B700002E000200390FFE7FFE70998007F452887
:100B800004D1FFE74FF4806002900CE00998007FE9
:100B90004F2804D1FFE74FF4C060029002E000202C
:100BA0000290FFE7FFE70998807F032812D8DFE86B
:100BB00000F00206090D4FF4805001900DE0002076
:100BC00001900AE04FF40050019006E04FF44050CD
:100BD000019002E000200190FFE70999087D8969F2
:100BE000039A019B029C009407F04CFA099801219A
:100BF000C1770AB010BD000080B584B040F2080192
:100C0000C2F2000102910190202000900298007D24
:100C100020B1FFE70298C07F18B9FFE700200390DA
:100C200007E00298007D0199009A07F0ABFB039062
:100C3000FFE7039804B080BD80B586B040F208029B
:100C4000C2F200020492039002910498007D20B148
:100C5000FFE70498C07F18B9FFE7002005900CE07B
:100C60000498FFF7F9FE0498007D0399029A07F0B3
:100C7000FFFB019001980590FFE706B080BD0000E2
:100C800080B582B001208DF807009DF80700C007ED
:100C900050B1FFE740F60040C4F201004021C0F22D
:100CA000404105F08BF809E040F60040C4F2010035
:100CB0004021C0F2404105F06DF8FFE702B080BD71
:100CC00080B582B08DF807009DF80700C00750B1CD
:100CD000FFE740F60000C4F201008021C0F280412D
:100CE00005F06CF809E040F60000C4F20100802134
:100CF000C0F2804105F04EF8FFE702B080BD000071
:100D000080B582B001208DF807009DF80700C0076C
:100D100050B1FFE740F60040C4F201008021C0F26C
:100D2000804105F04BF809E040F60040C4F20100B4
:100D30008021C0F2804105F02DF8FFE702B080BDB0
:100D400080B582B001208DF807009DF80700C0072C
:100D500050B1FFE740F60000C4F201000421C0F2E8
:100D6000044105F02BF809E040F60000C4F2010050
:100D70000421C0F2044105F00DF8FFE702B080BD88
:100D800080B582B001208DF807009DF80700C007EC
:100D900048B1FFE740F60040C4F2010040F6080108
:100DA00004F0F8FF08E040F60040C4F2010040F60D
:100DB000080105F003F8FFE702B080BD80B502F03E
:100DC000BDFB00F02BF9012002F0FAFC01204FF0EE
:100DD0007C5102F009FD40F6E550C0F6000007F036
:100DE00021FF80BD10B584B040F60010C2F20000B3
:100DF00008304FF4487108F085F9002870D0FFE7FB
:100E000040F23800C2F2000001684A1C026001EBA7
:100E1000D17020F00100081A30B1FFE700204FF038
:100E20007E5102F0E1FC04E00020002102F0DCFC35
:100E3000FFE740F60010C2F20000007DC00738BB9B
:100E4000FFE740F60014C2F200040120207507F00D
:100E5000EFFF206102F068FBA08103F0C7FF04F1FF
:100E600018000390039841F26F21C3F603318160AB
:100E700003984DF20A71C3F62341C1600398002123
:100E8000016103984FF07E5242620398816226E02E
:100E900002F04AFB40F60014C2F20004A189401A95
:100EA000ADF80A0002F040FBA08107F0C1FF216904
:100EB000401A019007F0BCFF2061BDF80A0047F21C
:100EC0004071C0F21B0148430199B0FBF1F0606032
:100ED0006068FFF7EAFCE06103F0B2FFFFE7FFE7BD
:100EE00004B010BD2DE9F04F87B000260696059698
:100EF00004960396029601960096102004F024FDB5
:100F0000202004F021FD042004F01EFD082004F040
:100F10001BFD41F2000AC4F2010A2027C0F220475B
:100F20005046394604F036FF40F60009C4F2010984
:100F30008424C0F284444846214604F02BFF40F646
:100F40000040C4F2010040F6C80BC0F2C04B594645
:100F500004F020FF0097012501954FF00208CDF81D
:100F6000088003966F465046394604F0B1FE00945F
:100F70000195CDF8088003964846394604F0A8FE4E
:100F8000CDF800B00195CDF80880039640F60040FA
:100F9000C4F20100394604F09BFE04F079FE4FF4E0
:100FA000007005908DF818508DF819608DF81A5062
:100FB00005A804F0BDFD04F01FFF07F0D1FC06F00A
:100FC00017F807F0EDFC07F063FCFFF759FD40F25E
:100FD0000800C2F20000007820B9FFE70020FFF708
:100FE0006FFE03E00120FFF76BFEFFE7FFF7A8FEAF
:100FF000FFF786FEFFF744FEFFF7C2FE01F03CFF5D
:10100000002002F0DDFB00204FF07E5102F0ECFBEF
:10101000FFF7D4FE07B0BDE8F08F000010B582B036
:1010200000200190019840F60014C2F200042060F4
:101030002068FFF73AFCA06102B010BDFFE7FEE7B1
:1010400080B58CB00B90002006900790012108918C
:101050000190029003900490059009910E200A904F
:101060000B9801A900F01AFA18B1FFE700F03AF85E
:10107000FFE70CB080BD000080B501F0CBF880BD6B
:101080007047000083B080B583B007930692059146
:10109000029005A80090029A009B40F2FC70C2F2F8
:1010A00000004FF4807108F057F901900198B0F5F5
:1010B000807F04D9FFE74FF480700190FFE701982B
:1010C00006F0F4FB03B0BDE8804003B070470000B9
:1010D00080B504F0A3FD18B1FFE704F0B5FCFFE70D
:1010E00080BD000081B0EFF3108072B60090FFE782
:1010F000FEE7000081B0009041F25040C2F20000D3
:101100000021C16142F21000C4F20200016841F006
:1011100002010160009942F21402C4F2020211605D
:10112000016841F04001016001B0704782B0019058
:10113000ADF8021041F25040C2F200000021C1613E
:1011400042F21000C4F20200016841F001010160A6
:10115000BDF802000199088002B0704781B00020FC
:101160000090FFE742F20C00C4F202000068C006E3
:1011700000280DD5FFE741F25040C2F20000C169DE
:1011800041F00201C161009840F010000090FFE7BB
:10119000FFE742F20C00C4F202000068400700289A
:1011A0000DD5FFE741F25040C2F20000C16941F0A5
:1011B0000101C161009840F004000090FFE7FFE7E3
:1011C00042F21C00C4F202000068C00798B1FFE7B9
:1011D00041F25040C2F20000C16941F00401C16116
:1011E000FFE742F21C00C4F20200016821F0010195
:1011F0000160FFE7FFE7FFE7009840F20111884236
:1012000009D1FFE742F21C00C4F20200016821F09C
:101210000101016006E0009842F20C01C4F20201F3
:101220000860FFE7FFE701B07047000080B584B0B9
:101230004CF25030029001F05BFB0190FFE742F26C
:101240000C00C4F202000068C007A8B1FFE70298D2
:10125000013080B1FFE7029840B1FFE701F048FBA1
:101260000199401A0299884204D9FFE703208DF8BA
:101270000F003BE0FFE7E2E7FFE742F20C00C4F2B9
:10128000020000688006002809D5FFE7FFE742F268
:101290000C00C4F2020020210160FFE7FFE7FFE736
:1012A00042F20C00C4F202000068C006002813D409
:1012B000FFE7FFE742F21C00C4F202000068C0072B
:1012C00050B9FFE7FFE742F20C00C4F202000068E9
:1012D0004007002806D5FFE7FFF740FF01208DF803
:1012E0000F0003E000208DF80F00FFE79DF80F00CE
:1012F00004B080BD84B0029002200190029890F862
:1013000020008DF803009DF80300012805D0FFE7B9
:101310009DF8030002280AD1FFE7019802990968A5
:101320004A691043486100208DF80F0008E00298D8
:10133000416A41F48021416201208DF80F00FFE7EE
:1013400004B0704788B00690059104920393069804
:1013500090F820008DF807000698006880680090DB
:101360000598806808B9FFE700E0FFE79DF80700EF
:10137000012806D0FFE79DF80700022840F0818091
:10138000FFE79DF80300400700280CD4FFE79DF815
:1013900003000007002806D4FFE79DF80300C006FD
:1013A000002865D5FFE70098C0F30160029002981D
:1013B000012101FA00F0039908600598806868B976
:1013C000FFE705980168C06840EA4150069909683E
:1013D000029A01EB0211C1F880010EE00598416804
:1013E0008268C06842EAC101084306990968029A06
:1013F00001EB0211C1F88001FFE705980069069929
:101400000968029A01EB0211C1F884010598007D78
:1014100001280CD1FFE706980068029900EB011043
:10142000D0F8841141F48071C0F88411FFE704986A
:10143000406806990968029A01EB0211C1F88C0113
:101440000498006806990968029A01EB0211C1F834
:10145000880106980068029900EB0110D0F880110D
:1014600041F00101C0F8801100208DF81F0011E04B
:101470000698416A41F40011416201208DF81F0075
:1014800008E00698416A41F48021416201208DF80C
:101490001F00FFE79DF81F0008B0704786B004905A
:1014A0000391049800680190049890F820008DF84A
:1014B00003009DF80300012806D0FFE79DF8030014
:1014C000022840F0A080FFE70198D0F8001241F018
:1014D0000101C0F800120398406900F01F000121CB
:1014E00001FA00F0029002980199D1F81C2222EA38
:1014F0000000C1F81C020398C069F8B9FFE7029820
:101500000199D1F80C2222EA0000C1F80C020398DC
:101510008188C268406941EA0241019A02EBC00039
:10152000C0F84012039801888268406941EA02418C
:10153000019A02EBC000C0F84412FFE70398C069AB
:1015400001281ED1FFE702980199D1F80C2210431F
:10155000C1F80C02039881880268406941EA02419F
:10156000019A02EBC000C0F840120398818982689A
:10157000406941EA0241019A02EBC000C0F84412FE
:10158000FFE70398806948B9FFE702980199D1F80D
:10159000042222EA0000C1F8040207E0029801993F
:1015A000D1F804221043C1F80402FFE70398006950
:1015B00048B9FFE702980199D1F8142222EA000005
:1015C000C1F8140207E002980199D1F814221043DF
:1015D000C1F81402FFE70398006A012808D1FFE769
:1015E00002980199D1F81C221043C1F81C02FFE7B0
:1015F0000198D0F8001221F00101C0F8001200207B
:101600008DF8170008E00498416A41F48021416296
:1016100001208DF81700FFE79DF8170006B070470E
:1016200084B0029001200190029890F820008DF87B
:1016300003009DF80300012805D0FFE79DF8030093
:1016400002280BD1FFE70198029909684A6922EA4A
:101650000000486100208DF80F0008E00298416A00
:1016600041F48021416201208DF80F00FFE704B0B2
:101670007047000081B0009001B0704786B00490C0
:101680000020039002910192049890F820008DF8B8
:1016900003009DF80300012806D0FFE79DF8030032
:1016A000022840F0E880FFE7039880B9FFE704983C
:1016B0000068C068800748B9FFE70498416A41F4B0
:1016C0000011416201208DF81700DDE00FE0049861
:1016D00000680069800748B9FFE70498416A41F44F
:1016E0000011416201208DF81700CDE0FFE704985A
:1016F0000068039900EB0110D0F8B00100F004007D
:10170000029988600298806858B9FFE704980068D9
:10171000039900EB0110D0F8B001400D0299086068
:101720000AE004980068039900EB0110D0F8B001BA
:10173000C00802994860FFE704980068039900EB2D
:101740000110D0F8B00100F002000299C8600498BE
:101750000068039900EB0110D0F8B40100F00F000D
:10176000082804D3FFE70298082101610BE00498E0
:101770000068039900EB0110D0F8B40100F00F00ED
:1017800002990861FFE704980068039900EB0110D3
:10179000D0F8B40180B2000A029988610498006808
:1017A000039900EB0110D0F8B401000C02994861D4
:1017B00004980068039900EB0110D0F8B801019972
:1017C000087004980068039900EB0110D0F8B80184
:1017D000000A0199487004980068039900EB011011
:1017E000D0F8B801000C019988700498006803993A
:1017F00000EB0110D0F8B801000E0199C8700498F0
:101800000068039900EB0110D0F8BC010199087140
:1018100004980068039900EB0110D0F8BC01000A9D
:101820000199487104980068039900EB0110D0F801
:10183000BC01000C0199887104980068039900EBC1
:101840000110D0F8BC01000E0199C871039838B995
:10185000FFE704980068C16841F02001C16006E01C
:1018600004980068016941F020010161FFE7002050
:101870008DF8170008E00498416A41F48021416224
:1018800001208DF81700FFE79DF8170006B070479C
:1018900083B0029000200190029890F820008DF80B
:1018A00003009DF80300012805D0FFE79DF8030021
:1018B000022822D1FFE702980068806840010028D2
:1018C00004D5FFE7019801300190FFE70298006816
:1018D00080680001002804D5FFE7019801300190DD
:1018E000FFE7029800688068C000002804D5FFE781
:1018F000019801300190FFE7FFE7019803B07047BE
:1019000080B588B041F22840C2F200000790002064
:10191000069007980068406905900798006840683D
:101920000490079800688068039007980068C06872
:101930000290079800680069019007980068806924
:1019400000909DF81400C007002800F09480FFE785
:101950009DF80C00C00758B3FFE707980068012105
:1019600081609DF80C008007002804D5FFE70798E8
:1019700000F0B0FB1BE09DF80C004007002805D5E7
:10198000FFE7069840F4006006900FE09DF80C0019
:101990000007002805D5FFE7069840F48050069020
:1019A00003E0079800F092FBFFE7FFE7FFE7FFE7A0
:1019B0009DF80D00C00760B3FFE7079800684FF47B
:1019C000807181609DF80D008007002804D5FFE735
:1019D000079800F087FB1BE09DF80D0040070028EA
:1019E00005D5FFE7069840F4005006900FE09DF8FB
:1019F0000D000007002805D5FFE7069840F4804059
:101A0000069003E0079800F069FBFFE7FFE7FFE7B8
:101A1000FFE79DF80E00C00760B3FFE70798006876
:101A20004FF4803181609DF80E008007002804D5B6
:101A3000FFE7079800F05EFB1BE09DF80E004007F3
:101A4000002805D5FFE7069840F4004006900FE017
:101A50009DF80E000007002805D5FFE7069840F422
:101A60008030069003E0079800F040FBFFE7FFE7B7
:101A7000FFE7FFE7FFE79DF814000007002810D5F7
:101A8000FFE79DF80800C006002809D5FFE7069883
:101A900040F400700690079800681021C160FFE7CD
:101AA000FFE79DF81400400700280FD5FFE79DF8D9
:101AB00008000007002808D5FFE7079800680821FC
:101AC000C160079800F05AFAFFE7FFE79DF814009D
:101AD000800700280BD5FFE707980068C0688007DB
:101AE00020B1FFE7079800F04DFAFFE7FFE79DF808
:101AF00014004006002810D5FFE79DF80400C0063A
:101B0000002809D5FFE7069840F480600690079802
:101B1000006810210161FFE7FFE79DF814008006CF
:101B200000280FD5FFE79DF804000007002808D51E
:101B3000FFE70798006808210161079800F074FA30
:101B4000FFE7FFE79DF81400C00600280BD5FFE76C
:101B5000079800680069800720B1FFE7079800F048
:101B600067FAFFE7FFE79DF81600800700280FD50A
:101B7000FFE79DF81000C006002808D5FFE707988A
:101B8000006810214160079800F056FAFFE7FFE770
:101B90009DF81600C00778B1FFE79DF81000000718
:101BA000002808D5FFE707980068082141600798DA
:101BB00000F0A4FAFFE7FFE79DF8150000060028F3
:101BC00040F18580FFE79DF810004007002879D597
:101BD000FFE79DF81500C00750B1FFE79DF8000032
:101BE000C00728B1FFE7069840F001000690FFE724
:101BF0009DF81500800700280BD5FFE79DF8000031
:101C00008007002805D5FFE7069840F002000690FF
:101C1000FFE79DF81500400700280BD5FFE79DF86A
:101C200000004007002805D5FFE7069840F00400B3
:101C30000690FFE79DF815000007002841D5FFE753
:101C40009DF8000010F0700F3BD0FFE7009800F007
:101C5000700010280FD0FFE7202811D0FFE73028B0
:101C600013D0FFE7402815D0FFE7502817D0FFE733
:101C7000602819D01DE0069840F00800069019E091
:101C8000069840F01000069014E0069840F02000FE
:101C900006900FE0069840F0400006900AE0069893
:101CA00040F08000069005E0069840F480700690B1
:101CB00000E0FFE707980068816921F07001816109
:101CC000FFE7FFE70798006804214160FFE70698F7
:101CD00048B1FFE7069807994A6A10434862079897
:101CE000FFF7C8FCFFE708B080BD000080B584B0F6
:101CF0000290029820B9FFE701208DF80F00DEE086
:101D0000029890F8200020B9FFE7029800F0DCF874
:101D1000FFE702980068016841F00101016000F0EE
:101D2000E7FD0190FFE7029800684068C007A8B986
:101D3000FFE700F0DDFD0199401A0B280DD3FFE706
:101D40000298416A41F4003141620298052180F80D
:101D5000201001208DF80F00B1E0E4E70298006840
:101D6000016821F00201016000F0C2FD0190FFE76F
:101D70000298006840688007002815D5FFE700F04A
:101D8000B7FD0199401A0B280DD3FFE70298416A6D
:101D900041F4003141620298052180F820100120B1
:101DA0008DF80F008BE0E3E70298007E012807D151
:101DB000FFE702980068016841F08001016006E0D9
:101DC00002980068016821F080010160FFE7029835
:101DD000407E012807D1FFE702980068016841F0C2
:101DE0004001016006E002980068016821F04001AE
:101DF0000160FFE70298807E012807D1FFE7029883
:101E00000068016841F02001016006E00298006866
:101E1000016821F020010160FFE70298C07E0128DF
:101E200007D1FFE702980068016821F01001016006
:101E300006E002980068016841F010010160FFE7C8
:101E40000298007F012807D1FFE702980068016827
:101E500041F00801016006E002980068016821F085
:101E600008010160FFE70298407F012807D1FFE7E2
:101E700002980068016841F00401016006E00298E0
:101E80000068016821F004010160FFE70298D0F8C2
:101E900000C042688368C1681943036919434069F7
:101EA0000843511E0843CCF81C00029800214162EF
:101EB0000298012280F820208DF80F10FFE79DF88E
:101EC0000F0004B080BD0000B0B588B007900020BE
:101ED00006900590049003900798006846F2004130
:101EE000C4F20001884247D1FFE7FFE741F21C003E
:101EF000C4F20200016841F000710160006800F066
:101F0000007002900298FFE7FFE741F21800C4F268
:101F10000200016841F004010160006800F0040063
:101F200001900198FFE74FF40060039000200490B7
:101F3000059040F60004C4F2010403AD2046294692
:101F400000F05CFB4FF480500390022004900320CB
:101F500006902046294600F051FB1320002100F096
:101F600061FF132000F054FF1420002100F05AFFFD
:101F7000142000F04DFFFFE708B0B0BD81B0009025
:101F800001B0704710B58EB00D900D9802A98A1D52
:101F900006A9FFF773FB002843D1FFE70898042840
:101FA00002D1FFE7079801E00698FFE70290089842
:101FB0000438B0FA80F040098DF80C000A988DF8CA
:101FC0000D0040F64C50C2F200000190FFE701986E
:101FD0000169426980690130B0FBF1F303FB110034
:101FE00090421CD0FFE701988169C06900EB0112A3
:101FF0004FEA011E029BDDF80CC00499059C40F8D5
:102000000E30D4609160C2F804C001980169826901
:102010000132B2FBF1F303FB11218161FFE7FFE71E
:10202000FFE70EB010BD000081B0009001B0704716
:1020300081B0009001B0704781B0009001B070474E
:1020400080B584B00290029890F8200001282FD12A
:10205000FFE70298022180F82010029800680168CA
:1020600021F00101016000F043FC0190FFE70298BC
:1020700000684068C007A8B1FFE700F039FC01998B
:10208000401A0B280DD3FFE70298416A41F4003152
:1020900041620298052180F8201001208DF80F0080
:1020A0000FE0E4E70298002141628DF80F1008E08C
:1020B0000298416A41F40021416201208DF80F002D
:1020C000FFE79DF80F0004B080BD000081B00090D4
:1020D00001B0704781B0009001B0704781B00090AE
:1020E00001B0704781B0009001B0704781B000909E
:1020F00001B0704781B0009001B0704781B000908E
:1021000001B0704780B582B0019000208DF80300C7
:10211000019890F82100022807D0FFE701980421D8
:10212000816301208DF8030067E001980068016871
:1021300021F00E01016001980068016821F00101A1
:102140000160019800680821C4F20201884202D1AE
:10215000FFE701203AE0019800681C21C4F2020167
:10216000884202D1FFE710202FE00198006830215B
:10217000C4F20201884203D1FFE74FF4807023E0EC
:10218000019800684421C4F20201884203D1FFE7AC
:102190004FF4805017E0019800685821C4F2020102
:1021A000884203D1FFE74FF480300BE001980168CB
:1021B0006C22C4F202024FF08070914208BF4FF4CB
:1021C0008010FFE7FFE7FFE7FFE7FFE70421C4F226
:1021D000020108600198012180F82110FFE70198B1
:1021E000002180F82010FFE70198406B20B1FFE745
:1021F0000198416B8847FFE7FFE79DF8030002B0B5
:1022000080BD000081B00090009890F8210001B0DE
:102210007047000080B584B041F20800C2F20000AF
:1022200003900398C06B00680290039800680068F0
:10223000019002980399096CC8404007002866D5B0
:10224000FFE79DF804004007002860D5FFE70398EA
:10225000006800688006002807D4FFE7039800683C
:10226000016821F004010160FFE70398006808217C
:10227000C4F20201884202D1FFE704203AE0039849
:1022800000681C21C4F20201884202D1FFE740200D
:102290002FE0039800683021C4F20201884203D184
:1022A000FFE74FF4806023E0039800684421C4F204
:1022B0000201884203D1FFE74FF4804017E0039802
:1022C00000685821C4F20201884203D1FFE74FF4AD
:1022D00080200BE0039801686C22C4F202024FF0E8
:1022E0008060914208BF4FF48000FFE7FFE7FFE7FF
:1022F000FFE7FFE70421C4F2020108600398C06A07
:1023000020B1FFE70398C16A8847FFE7A8E0029879
:102310000399096CC8408007002870D5FFE79DF835
:102320000400800700286AD5FFE70398006800686A
:10233000800600280BD4FFE703980068016821F0AD
:102340000A0101600398012180F82110FFE703983A
:1023500000680821C4F20201884202D1FFE702208E
:102360003AE0039800681C21C4F20201884202D1BD
:10237000FFE720202FE0039800683021C4F202011B
:10238000884203D1FFE74FF4007023E00398006810
:102390004421C4F20201884203D1FFE74FF4005008
:1023A00017E0039800685821C4F20201884203D163
:1023B000FFE74FF400300BE0039801686C22C4F291
:1023C00002024FF00070914208BF4FF40010FFE787
:1023D000FFE7FFE7FFE7FFE70421C4F2020108601F
:1023E000FFE70398002180F82010FFE70398806A38
:1023F00020B1FFE70398816A8847FFE72FE0029842
:102400000399096CC8400007002827D5FFE79DF80D
:1024100004000007002821D5FFE703980068016841
:1024200021F00E0101600398C16B006C012202FAD9
:1024300000F0486003988263039880F82120FFE74A
:102440000398002180F82010FFE70398006B20B16B
:10245000FFE70398016B8847FFE7FFE7FFE7FFE728
:1024600004B080BD42F21000C4F20200016841F0E5
:10247000800101607047000010B588B010210691FE
:1024800005900393029201208DF8070000208DF83B
:1024900006008DF80500FFE741F25040C2F200004F
:1024A000007E012804D1FFE702208DF81F0074E0B0
:1024B00041F25040C2F2000001210176FFE7FFE740
:1024C000FEF7B4FE8DF807009DF80700002857D1ED
:1024D000FFE70698012804D1FFE701208DF80500E9
:1024E0000CE00698022804D1FFE702208DF80500D1
:1024F00003E004208DF80500FFE7FFE700208DF8DA
:102500000600FFE79DF806009DF80510884235DAC1
:10251000FFE705989DF8061000EB4100DDF808C0C4
:10252000039B4FEA011E2022A2EB011203FA02F4E0
:102530002CFA0EF222436FF01F0404EB0111CB4082
:10254000002958BF1A4691B2FEF7F0FDFEF76EFE65
:102550008DF8070042F21000C4F20200016821F079
:10256000010101609DF8070008B1FFE707E0FFE700
:102570009DF8060001308DF80600C3E7FFE7FFE78E
:10258000FFE741F25040C2F2000000210176FFE770
:102590009DF807008DF81F00FFE79DF81F0008B0A9
:1025A00010BD000081B000208DF8030042F2100041
:1025B000C4F202000068000600281CD5FFE742F2C2
:1025C0000400C4F2020040F22311C4F2675101601A
:1025D00048F6AB11CCF6EF51016042F21000C4F2A4
:1025E000020000680006002804D5FFE701208DF8EE
:1025F0000300FFE7FFE701B0704700008AB00990D1
:102600000891002007900390FFE708980068079959
:10261000C840002800F06A81FFE70798012101FA0D
:1026200000F0069008980068069908400590059803
:102630000699884240F05681FFE7089840680028D4
:1026400046D0FFE7012830D0FFE7022836D0FFE769
:10265000032857D0FFE711282BD0FFE7122832D0EC
:10266000FFE70021C1F21101884231D0FFE70021CC
:10267000C1F2120188422BD0FFE70021C1F22101F3
:10268000884225D0FFE70021C1F2220188421FD0F5
:10269000FFE70021C1F23101884219D0FFE7002194
:1026A000C1F23201884213D02FE00898C06803902D
:1026B0002CE00898C0680430039027E00898C068B0
:1026C0000830039022E00898C0680C3003901DE0A9
:1026D0000898806818B9FFE70420039011E0089873
:1026E0008068012806D1FFE7082003900698099921
:1026F000086105E008200390069809994861FFE702
:10270000FFE703E00020039000E0FFE70598FF28C3
:1027100002D8FFE7099802E009980430FFE7029029
:102720000598FF2803D8FFE70798800005E0079881
:102730006FF01F0101EB8000FFE701900298006835
:1027400001990F228A409043039A02FA01F108434B
:10275000029908600898C079C006002840F1C1803D
:10276000FFE7FFE741F21800C4F20200016841F000
:1027700001010160006800F0010000900098FFE78F
:10278000079820F003000821C4F20101405804908A
:10279000079800F0030080000F2101FA00F004996F
:1027A00021EA00000490099840F60001C4F20101FA
:1027B000884202D1FFE700201FE0099840F600415F
:1027C000C4F20101884202D1FFE7012014E0099818
:1027D00041F20001C4F20101884202D1FFE7022068
:1027E00009E0099941F20042C4F201020420914239
:1027F00008BF0320FFE7FFE7FFE7079901F00301A8
:10280000890088400499084304900498079921F0AE
:1028100003010822C4F20102885008988079C0069A
:10282000002809D5FFE7059840F20841C4F20101EC
:102830000A681043086009E0059840F20841C4F2B4
:1028400001010A6822EA00000860FFE70898807921
:102850008006002809D5FFE7059840F20C41C4F234
:1028600001010A681043086009E0059840F20C4134
:10287000C4F201010A6822EA00000860FFE7089834
:1028800080798007002809D5FFE7059840F20441C8
:10289000C4F201010A681043086009E0059840F29B
:1028A0000441C4F201010A6822EA00000860FFE75F
:1028B00008988079C00748B1FFE7059840F20041C9
:1028C000C4F201010A681043086009E0059840F26B
:1028D0000041C4F201010A6822EA00000860FFE733
:1028E000FFE7FFE70798013007908EE60AB07047D0
:1028F00041F24860C2F200000068704781B0009069
:1029000001B0704782B001908DF80310ADF800203F
:1029100002B0704780B586B041F24C00C2F20000B0
:102920000590002003900598006840680290059883
:10293000C06A0190059890F83E008DF80300059854
:1029400090F83D008DF802009DF80300102806D095
:10295000FFE79DF80300402840F0FD80FFE7059861
:1029600000688069039005980068406904900498A5
:10297000C00788B9FFE701990120B1F52A0F07D0F8
:10298000FFE7019800F1AC40B0FA80F04009FFE7A2
:10299000C00708B1FFE7A1E10498C00780B1FFE7D5
:1029A0009DF8090000F002000021B1EB500F07D0A4
:1029B000FFE7059801F020F8059801F09FFEC9E0B7
:1029C0009DF8100000F008000021B1EBD00F0DD0F1
:1029D000FFE79DF8090000F002000021B1EB500F65
:1029E00004D0FFE7059801F0B9FCB2E09DF81000B3
:1029F00000F002000021B1EB500F0DD0FFE79DF871
:102A0000090000F002000021B1EB500F04D0FFE7F5
:102A1000059801F0C7FC9BE09DF80C0000F0040055
:102A20000021B1EB900F50D0FFE705980068406897
:102A300000F40060B0F5006F46D0FFE79DF810008D
:102A40000021B1EBD01F16D0FFE79DF8090000F080
:102A500004000021B1EB900F0DD0FFE79DF81000AE
:102A600000F004000021B1EB900F04D1FFE70598BE
:102A700001F0D4FB27E09DF8100000F004000021D5
:102A8000B1EB900F1DD0FFE79DF8090000F00200A8
:102A90000021B1EB500F14D0FFE79DF80200212870
:102AA00004D1FFE7059801F049FB09E09DF8030018
:102AB000402804D1FFE7059801F098FEFFE7FFE703
:102AC00000E0FFE7FFE7FFE741E0059800684068A6
:102AD00000F40060B0F5006F38D0FFE79DF81000FB
:102AE00000F040000021B1EB901F16D0FFE79DF8E9
:102AF000090000F004000021B1EB900F0DD0FFE7BA
:102B00009DF8100000F004000021B1EB900F04D1FB
:102B1000FFE7059801F05CFA17E09DF8100000F05F
:102B200004000021B1EB900F0DD0FFE79DF80900E4
:102B300000F002000021B1EB500F04D0FFE7059830
:102B400001F070F900E0FFE7FFE7FFE7FFE7FFE7CD
:102B5000FFE7FFE7C2E00598006C28B1FFE70598A2
:102B600000684069049008E0059800688069039057
:102B70000598006840690490FFE79DF8100000F098
:102B800002000021B1EB500F17D0FFE79DF80900BC
:102B900000F002000021B1EB500F0ED0FFE70598C6
:102BA000006C28B1FFE70598006880690390FFE793
:102BB0000598039901F04AFF8FE09DF8100000F09E
:102BC00010000021B1EB101F0DD0FFE79DF80900A8
:102BD00000F002000021B1EB500F04D0FFE7059890
:102BE00001F08CFF78E09DF80200212805D0FFE776
:102BF0009DF80200292836D1FFE79DF8100000213A
:102C0000B1EBD01F16D0FFE79DF8090000F00400DB
:102C10000021B1EB900F0DD0FFE79DF8100000F000
:102C200004000021B1EB900F04D1FFE7059801F0FB
:102C3000D7FE17E09DF8100000F004000021B1EB72
:102C4000900F0DD0FFE79DF8090000F00200002171
:102C5000B1EB500F04D0FFE7059801F0ABFE00E0A8
:102C6000FFE7FFE737E09DF8100000F0400000218B
:102C7000B1EB901F16D0FFE79DF8090000F00400AB
:102C80000021B1EB900F0DD0FFE79DF8100000F090
:102C900004000021B1EB900F04D1FFE7059801F08B
:102CA00051FE17E09DF8100000F004000021B1EB88
:102CB000900F0DD0FFE79DF8090000F00200002101
:102CC000B1EB500F04D0FFE7059801F023FE00E0C0
:102CD000FFE7FFE7FFE7FFE7FFE7FFE706B080BD9D
:102CE00081B0009001B0704781B0009001B0704792
:102CF00081B0009001B0704781B0009001B0704782
:102D000081B0009001B0704781B0009001B0704771
:102D100081B0009001B0704781B0009001B0704761
:102D200041F24860C2F20000016801310160704761
:102D300080B542F20000C4F20200016841F01001C7
:102D4000016000F087F800F003F800F02FF880BD74
:102D500080B582B00020009040F22800C2F200004E
:102D6000006844F6D351C1F26201A0FB0101880959
:102D700000F07AF820B1FFE701208DF8070011E09C
:102D800000980F2806D8FFE700994FF0FF3000F0B9
:102D900049F803E001208DF8070003E000208DF8DA
:102DA0000700FFE79DF8070002B080BD83B0FFE792
:102DB00041F21800C4F20200016841F00101016013
:102DC000006800F0010002900298FFE7FFE741F27F
:102DD0001C00C4F20200016841F0805101600068EB
:102DE00000F0805001900198FFE7FFE70420C4F253
:102DF000010001680091009921F0E06100910099C3
:102E000041F00071009100990160FFE703B0704745
:102E100080B582B08DF807009DF9070005F086FDAA
:102E200002B080BD10B584B08DF80F000291002073
:102E30000190009005F0ACFD00909DF90F400098C6
:102E40000299019A04F06CF90146204605F00EFE45
:102E500004B010BD80B582B003200190019805F048
:102E600027FE02B080BD000080B582B001900198BD
:102E700004F0EAFD02B080BD80B584B000208DF87A
:102E80000F0003208DF80E009DF80F00002805DCD0
:102E9000FFE79DF80E00062801D3FFE79BE09DF8B1
:102EA0000F0000EB400040F64C51C2F2000101EB74
:102EB00000100290029890F82C00C00768BBFFE752
:102EC000029840F6BC61C2F200010162029840F62D
:102ED0007C51C2F200014162FFE7029814210160B7
:102EE0000298016AC16002980021416002988160E5
:102EF000FFE7FFE70298142101610298416AC1616E
:102F000002980021416102988161FFE7029841F235
:102F10002841C2F200018162FFE79DF80E0049F6E8
:102F2000CC41C0F6000101EB001001900298806ACC
:102F300046F20041C4F20001016001980068029964
:102F4000896A48600298816A002088600199C9688E
:102F5000029A926AD16001994968029A926A116153
:102F600001998968029A926A51610299896A087680
:102F70000299896A48760299896A88760299896AEB
:102F80000122CA760299896A08770299896A487784
:102F90000298806AFEF7AAFE18B1FFE7FEF7A2F8D2
:102FA000FFE70298806AFEF74BF80298806AFFF705
:102FB00047F818B1FFE7FEF795F8FFE70298806A37
:102FC000FEF798F90298806AFEF72AFB0298012121
:102FD00080F82C10FFE704B080BD000080B586B0FB
:102FE00000218DF80E1002909DF80E00002803DCE1
:102FF000FFE7029820B9FFE700208DF80F0055E0A9
:103000009DF80E0000EB400040F64C51C2F200016A
:1030100001EB00100190019890F82C00C00720B936
:10302000FFE700208DF80F0040E000208DF803003E
:1030300001200590059880F3108801984169806906
:10304000814229D0FFE7FFE7019841698069814209
:103050001DD0FFE7029801994A69C9694FEA021C2D
:1030600001EB0212D2F804E09368D268C260836078
:10307000C0F804E051F80C10016001980169426940
:103080000132B2FBF1F303FB11214161FFE7FFE7DE
:1030900001208DF80300FFE700200490049880F3DE
:1030A00010889DF803008DF80F00FFE79DF80F00D2
:1030B00006B080BD80B58EB000218DF82E100A902C
:1030C0009DF82E00002808DCFFE70A9828B1FFE7EA
:1030D0000A984079092804DBFFE700208DF82F00CB
:1030E00063E09DF82E0000EB400040F64C51C2F228
:1030F000000101EB00100990099890F82C00C0071E
:1031000020B9FFE700208DF82F004EE001208DF858
:1031100023000D900D9880F310880998806AFEF7BF
:10312000B7FBB8B3FFE70A98007928B9FFE70A9818
:1031300000686FF3DF2001E00020FFE702900A98AB
:103140000079012805D1FFE70A98006820F07E4049
:1031500001E00020FFE703900A9800790138B0FAF7
:1031600080F0400980000490002005900A99497978
:1031700006918DF81C000998806A0A998A1D02A997
:1031800001ABFEF7DFF820B9FFE700208DF8230040
:10319000FFE700E0FFE700200C900C9880F3108818
:1031A0009DF823008DF82F00FFE70EB080BD0000D2
:1031B00041F24460C2F200000068704770B592B0FE
:1031C00040F6FD00C2F200000078012801D1FFE7BF
:1031D0006FE00025119510950F950E950D950895AA
:1031E000079506950595049503950295019509A8FF
:1031F00002F008FF02F0CCFB05F0BAFB03F02AFF57
:1032000005F0F0FB05F05EFB09984DF68361C4F212
:103210001B31A0FB01014FF0FF3000EB9140ADF8F6
:1032200034000E954FF6FF700F90109542F6004453
:10323000C4F201040DA9204603F0AEFA03F0FCF934
:1032400003F0BCFC019502950395049505950126B4
:1032500001AD204601212A4603F036FC012003F08F
:103260004DFB204610212A4603F02EFC102003F0CF
:1032700045FB20464FF480712A4603F025FC4FF4AD
:10328000807003F03BFB20464FF480512A4603F048
:103290001BFC4FF4805003F031FB03F0C5FC03F03E
:1032A00017FA03F043FA40F6FD00C2F20000067080
:1032B000FFE712B070BD000081B044F6C150C0F607
:1032C00000000090009840F2F871C2F2000108601E
:1032D00001B0704710B584B0029000208DF807004F
:1032E000029C02F033FE6FF39F50844204D3FFE749
:1032F0004FF0FF3003901DE0FFF754F9FDF796FF04
:1033000002988002FDF7F6FEFDF790FF8DF80700AA
:1033100042F21000C4F20200016821F002010160D3
:10332000FFF7A0F89DF80700002818BF4FF0FF3006
:103330000390FFE704B010BD10B582B001904FF0CC
:10334000FF300090019C02F001FE6FF39F50844219
:1033500007D2FFE701984FF0006101EB8020009059
:10336000FFE7009802B010BD86B00590049103926B
:10337000039820F00300029000200190FFE70198DD
:10338000029988420BD2FFE70598019940580499A9
:10339000019A8850FFE7019804300190EFE7029806
:1033A0000090FFE70098039988420BD2FFE7059849
:1033B0000099405C0499009A8854FFE70098013016
:1033C0000090EFE706B0704780B58AB0099040F6EC
:1033D000FC70C2F2000008900C20079000200690BC
:1033E0000590049003900290099800F17840800ABB
:1033F000039009986FF39F20C0F5806004900798B0
:103400000499884203D8FFE70798059002E00498E2
:103410000590FFE7FFE703984FF0006101EB802084
:1034200040F64C11C2F200014FF48062FFF79CFF9E
:1034300009986FF39F20029000200190FFE7019808
:10344000059988420FD2FFE708980199405C029ADB
:10345000114440F64C12C2F200025054FFE70198AA
:1034600001300190EBE70398FFF734FF039800F079
:1034700023F805980799081A0790079808B9FFE7F5
:1034800017E0059809990844099005980899084497
:1034900008900798B0F5806F04D9FFE74FF480607B
:1034A000059002E007980590FFE70398013003902C
:1034B000B1E70AB080BD000010B588B0079040F6B3
:1034C0004C10C2F200000690002405940698049067
:1034D0000798FFF731FF039006980290FFF762F814
:1034E0000194FFE701987F2819D8FFE70398019915
:1034F00000EBC100029A02EBC10352F831205B6875
:10350000FEF7BAFF0590059820B1FFE74FF0FF30B6
:10351000059005E0FFE7019801300190E2E7FFE741
:10352000FEF7A0FF08B010BD80B582B000208DF876
:10353000070003F029F980B202B080BD10B58CB04D
:1035400000248DF82F400A94099408940794069457
:103550000594049403940294019402F0D1F902F0CA
:1035600061FA40F2011001900420029040F6000040
:10357000C4F2010001A902F0ABFBADF818400794BA
:103580004FF6FF700890099406A94FF0804003F0B1
:1035900003F903F069F803F039F803F023FB03F0B3
:1035A00063FB03F0ADF803F0D9F80CB010BD0000D8
:1035B00080B582B00190019840F60001C4F201018B
:1035C00088421CD0FFE740F60041C4F20101884266
:1035D00019D0FFE741F20001C4F20101884216D080
:1035E000FFE741F20041C4F20101884213D0FFE736
:1035F00041F60001C4F20101884210D013E004201A
:1036000002F0DAF910E0082002F0D6F90CE0102000
:1036100002F0D2F908E0202002F0CEF904E04020C8
:1036200002F0CAF900E0FFE702B080BD70B592B0C9
:103630000025119510950F950E950D950C950B95F0
:103640000A9509950895079506950595049503959E
:103650000295019500950226022002F01BF9082030
:10366000ADF834000E9541F63F700F90109540F282
:103670000044C4F200040DA9204603F08DF8204652
:1036800002F0E8FF602005900695079508950996D9
:1036900005AA2046012103F017FA2046012103F074
:1036A0007DF9204603F0D2FA204603F01FF82046A9
:1036B000012103F0BFF902F091F941F210000090EE
:1036C000092001900296039540F60040C4F20100E3
:1036D000694602F0FDFA02F0CBFA2046012102F021
:1036E0006BFF204603F030F8204603F015F812B0C7
:1036F00070BD0000B0B592B00025119510950F95E2
:103700000E950D950C950B950A95099508950795BD
:10371000069505950495039502950195009504205D
:1037200002F0B8F82320ADF834000E9541F63F7052
:103730000F90109540F60004C4F200040DA9204635
:1037400003F02AF8204602F085FF20464FF48071EE
:1037500003F070F960200590069507950895099586
:1037600005AA20464FF4807103F0AEF920464FF4CD
:10377000807103F013F9204603F068FA204602F046
:10378000B5FF02F02BF90120C0F2014000900920A2
:10379000019002200290039540F60040C4F201001F
:1037A000694602F095FA20464FF4807102F004FF5A
:1037B000204602F0C9FF204602F0AEFF12B0B0BDB5
:1037C00080B582B08DF807009DF8070018B1FFE7BB
:1037D000012803D005E0FFF729FF03E0FFF78AFF88
:1037E00000E0FFE702B080BDB0B584B08DF80F00F7
:1037F0000291029C20460021FDF749F80546002D64
:1038000018BF25464FF07E5428464FF07E51FDF7F5
:1038100030F8002818BF2C46029402980021C4F208
:10382000FA51FCF739FDFCF7F1FEADF806009DF802
:103830000F0018B1FFE7012805D009E0BDF8060028
:1038400003F084F905E0BDF8060003F09BF900E001
:10385000FFE704B0B0BD000010B586B000240594A9
:103860000494ADF80C40029401944FF4FA60ADF862
:10387000040001208DF806008DF807008DF808403F
:103880008DF809408DF80A40ADF80C4001A805F00C
:10389000D3FB41F27041C2F20001C1E9000402F021
:1038A00041F8012805D0FFE74FF0805002F004F8FE
:1038B000FFE702F05BFB01280DD0FFE74FF000604F
:1038C00001F0FAFF02F048FBFFE702F04FFB08B9F6
:1038D000FFE7FAE7FFE702F05BFB02F015FC02F0FE
:1038E000BFFBFFE702F0C6FB012801D0FFE7F9E7C5
:1038F00002F070FBB0F5007F05D0FFE702F03EFC60
:1039000001F0B8FFFFE702F0A5FC02F037FB49F633
:103910003F40049004A802F053FD02F0BDFCFFE715
:1039200042F60000C4F2000002F0DCFC08B1FFE740
:10393000F6E702F043FC43F2F12188421BD0FFE797
:1039400040F2E670ADF804000C208DF806000E2061
:103950008DF8070021208DF809000F208DF8080050
:1039600000208DF80A00ADF80C0001A800F00EF858
:1039700002F03AFCFFE742F60000C4F2000002F059
:10398000E9FC02F0A1FC06B010BD000010B584B047
:103990000390002401940094039805F04DFB0194DA
:1039A00000900098019900F003F804B010BD0000E9
:1039B00080B582B0019100900098019941F2704267
:1039C000C2F20002D2E90023801A71EB03000BD38C
:1039D000FFE7009841F27041C2F20001D1E9001204
:1039E000401A02F07DFDFFE702B080BDFFE7FEE771
:1039F00080B5FEF78FFF80BD81B000900098C06A4F
:103A0000B0F52A0F04D1FFE700980121C1620BE055
:103A10000098C06AB0F12A4F04D1FFE7009808214E
:103A2000C16200E0FFE7FFE701B0704780B584B0F6
:103A30000390002002900398406A0190019890F84A
:103A40003D008DF8030040F22800C2F2000000683B
:103A500048F21F51C5F2EB11A0FB0101C80844F662
:103A6000D351C1F26201A0FB01018809232148431F
:103A70000290FFE7029830B9FFE70198016C41F02E
:103A8000200101640DE0029801380290FFE70198DF
:103A90000068006800F40070B0F5007FEAD0FFE72E
:103AA000FFE70198406B28B1FFE70198406B0021C8
:103AB0008162FFE70198806B28B1FFE70198806B76
:103AC00000218162FFE701980068016821F48061AC
:103AD00001600198002141850198406B28B1FFE702
:103AE0000198406B00214163FFE70198806B28B18A
:103AF000FFE70198806B00214163FFE701980068B0
:103B0000016821F001010160019890F83D006028F2
:103B10000ED1FFE70198202180F83D100198002187
:103B200080F83E10019801640198FEF7E7FE27E057
:103B30009DF8030000F02800282814D1FFE7019821
:103B40000068016841F001010160019800680168A6
:103B500041F48061016001980021016301982821EE
:103B600080F83D1008E00198202180F83D10019870
:103B7000002180F83E10FFE70198FFF7B1F8FFE75A
:103B800004B080BD81B00090009800684069C0B268
:103B90000021B1EBD01F05D0FFE70098006800219D
:103BA0000161FFE701B0704780B584B003900398CE
:103BB00090F83D008DF80B00039890F83E008DF8CA
:103BC0000A009DF80A00102805D0FFE79DF80A00BA
:103BD00040280CD1FFE79DF80B00222807D1FFE712
:103BE00003980068016821F400610160FFE79DF817
:103BF0000B0000F02800282808D1FFE703980021D7
:103C000001630398282180F83D101AE003980068AA
:103C1000406800F40060B0F5006F0ED0FFE79DF83B
:103C20000B00602809D0FFE70398202180F83D10A1
:103C30000398002180F83E10FFE7039800210163FC
:103C4000FFE7039800684068000500285DD5FFE79E
:103C500003980068416821F4006141600398406B5B
:103C600090F8210001281DD0FFE70398406B43F630
:103C70002D21C0F6000141630398406BFEF742FA24
:103C800078B1FFE703980068016821F00101016045
:103C90000398202180F83D100398406B416B8847C2
:103CA000FFE731E00398806B43F62D21C0F6000159
:103CB00041630398806BFEF725FA20B3FFE7039872
:103CC0000068406900F040000121B1EB901F0BD16A
:103CD000FFE70398006800690399496A0870039830
:103CE000416A01314162FFE703980068016821F0F1
:103CF000010101600398202180F83D100398806B3A
:103D0000416B8847FFE7FFE745E0039890F83D00E7
:103D1000602826D1FFE70398202180F83D10039802
:103D20000021016403980068406900F0400001210F
:103D3000B1EB901F0BD1FFE703980068006903996E
:103D4000496A08700398416A01314162FFE70398AC
:103D50000068016821F0010101600398FEF7CEFDC3
:103D600018E003980068406900F040000121B1EBC1
:103D7000901F0BD1FFE70398006800690399496A17
:103D800008700398416A01314162FFE70398FEF72A
:103D9000A7FFFFE7FFE70398006C01909DF8040080
:103DA000C00790B9FFE7019800F0020002280CD08C
:103DB000FFE7019800F00400042806D0FFE79DF813
:103DC00004000007002807D5FFE703980068416852
:103DD00021F4E0614160FFE7039890F83D008DF821
:103DE0000B000398006C4007002818D5FFE79DF8EA
:103DF0000B00282813D1FFE703980021CFF6FF71AD
:103E0000C1620398002101630398202280F83D20BD
:103E1000039880F83E100398FEF766FFFFE704B0B2
:103E200080BD000080B582B001900198C06A00900A
:103E30000198408D042815D1FFE70198006841687A
:103E400021F4806141600198006800690199496A24
:103E500008700198416A013141620198418D013930
:103E60004185B3E00198408D032824D1FFE70198F4
:103E70000068416821F480614160009804280BD0FB
:103E8000FFE70098022807D0FFE701980068016863
:103E900021F480610160FFE70198006800690199E1
:103EA000496A08700198416A013141620198418D67
:103EB0000139418589E00198408D022875D1FFE7DD
:103EC0000098012804D0FFE70098102807D1FFE7E9
:103ED00001980068016821F48061016016E0009893
:103EE000042804D0FFE70098022807D1FFE70198D3
:103EF0000068016841F48061016006E00198006893
:103F0000016841F400710160FFE7FFE70198006874
:103F100000690199496A08700198416A013141625A
:103F20000198418D01394185019800680069019926
:103F3000496A08700198416A013141620198418DD6
:103F40000139418501980068416821F44071416060
:103F50000198202180F83D10019890F83E004028FB
:103F60000AD1FFE70198002180F83E100198016313
:103F70000198FEF7C5FE17E00198002180F83E1079
:103F80000098082804D0FFE70098202804D1FFE714
:103F900001980021016303E0019812210163FFE70A
:103FA0000198FEF7A5FEFFE70EE0019800680069A2
:103FB0000199496A08700198416A0131416201988A
:103FC000418D01394185FFE7FFE7FFE702B080BD82
:103FD00080B584B00390039890F83D00222840F00B
:103FE000AA80FFE70398C06A01900398408D029071
:103FF000029804281BD3FFE703980068006903991F
:10400000496A08700398416A013141620398418D01
:10401000013941850398408D032807D1FFE70398B4
:104020000068416821F480614160FFE782E0039805
:10403000C06A022876D0FFE70298012804D0FFE783
:10404000029800286ED1FFE7039800F07DFE00285B
:1040500047D1FFE703980068016821F4806101609F
:1040600003980068416821F4E061416003980068AA
:1040700000690399496A08700398416A01314162F5
:104080000398418D013941850398202180F83D1026
:10409000039890F83E0040280AD1FFE703980021DA
:1040A00080F83E10039801630398FEF729FE17E09D
:1040B0000398002180F83E100198082804D0FFE7FB
:1040C0000198202804D1FFE703980021016303E051
:1040D000039812210163FFE70398FEF709FEFFE74B
:1040E0001FE003980068416821F4E0614160039893
:1040F000006800690399496A08700398416A0131B0
:1041000041620398418D013941850398202180F84F
:104110003D100398002180F83E100398FEF7E0FD63
:10412000FFE706E003980068416821F48061416080
:10413000FFE7FFE7FFE704B080BD000080B582B075
:1041400001900198C06A0090019890F83D002128E4
:1041500060D1FFE70198408D70B1FFE701980168D9
:10416000406A007808610198416A01314162019812
:10417000418D013941854CE0009808281ED0FFE7A9
:10418000009820281AD0FFE7009810F5803F15D03E
:10419000FFE701980068416821F4E06141600198FF
:1041A000112101630198002180F83E10019820211F
:1041B00080F83D100198FEF79FFD29E00198006806
:1041C000416821F4E061416001980068016841F4B0
:1041D000007101600198002101630198202180F89D
:1041E0003D10019890F83E00402808D1FFE7019863
:1041F000002180F83E100198FEF786FD07E0019847
:10420000002180F83E100198FEF776FDFFE7FFE7FA
:10421000FFE700E0FFE702B080BD000080B584B09A
:104220000390039890F83D008DF80B00039890F8E8
:104230003E008DF80A000398C06A01900398008D33
:10424000002852D1FFE79DF80B0021284DD1FFE750
:10425000019808281ED0FFE7019820281AD0FFE710
:10426000019810F5803F15D0FFE70398006841687A
:1042700021F4E0614160039811210163039800215A
:1042800080F83E100398202180F83D100398FEF737
:1042900033FD29E003980068416821F4E061416042
:1042A00003980068016841F40071016003980021DF
:1042B00001630398202180F83D10039890F83E0098
:1042C000402808D1FFE70398002180F83E100398AA
:1042D000FEF71AFD07E00398002180F83E100398CE
:1042E000FEF70AFDFFE7FFE735E09DF80B00212808
:1042F0000AD0FFE79DF80A0040282AD1FFE79DF881
:104300000B00222825D1FFE70398408D38B9FFE73D
:1043100003980068416821F48061416018E00398C7
:1043200090F83E00402804D1FFE7039800F05EFAC1
:104330000DE003980168406A007808610398416ABB
:10434000013141620398418D01394185FFE7FFE763
:1043500000E0FFE7FFE704B080BD000081B00090FF
:104360000098406CC0B20099096808610098406BE1
:1043700028B1FFE70098406B806A48B9FFE70098D2
:10438000806B60B1FFE70098806B806A38B1FFE70F
:1043900000980068416841F400614160FFE701B0A6
:1043A000704700008FB00E900E9890F83E008DF888
:1043B00037000E98C06A0C900E98006B0B900E9808
:1043C00090F83D00222840F08981FFE70E98006DAB
:1043D00098B9FFE79DF8370040280ED1FFE7FFE7C7
:1043E00000200A900E98006840690A900E980068B4
:1043F00080690A900A98FFE76FE10E98006DF0B9A6
:10440000FFE70E980069B0F5404F18D1FFE7FFE7CE
:10441000002009900E980068406909900E98006885
:10442000806909900998FFE70E980068016841F4D7
:10443000807101600E98016D013101654CE10E98AB
:10444000408DA0B9FFE7FFE7002008900E980068B4
:10445000406908900E980068806908900898FFE706
:104460000E980068016841F40071016030E10E9817
:10447000408D012840F09080FFE70C9810F5803FB8
:1044800036D1FFE70E980068016821F48061016071
:104490000E98006840680005002814D5FFE70E98C4
:1044A0000068016821F480610160FFE70020079047
:1044B0000E980068406907900E9800688069079020
:1044C0000798FFE713E0FFE7002006900E980068CA
:1044D000406906900E980068806906900698FFE78C
:1044E0000E980068016841F400710160FFE752E036
:1044F0000C98082834D0FFE70C98202830D0FFE72C
:104500000B98122804D1FFE70C98012828D1FFE767
:104510000C9804280FD0FFE70C9802280BD0FFE777
:104520000C98102807D0FFE70E980068016821F466
:104530008061016006E00E980068016841F48061C6
:104540000160FFE7FFE7002005900E9800684069D2
:1045500005900E980068806905900598FFE719E0BE
:104560000E980068016821F480610160FFE7002077
:1045700004900E980068406904900E980068806965
:1045800004900498FFE70E980068016841F40071F8
:104590000160FFE7FFE79AE00E98408D02285ED1A8
:1045A000FFE70C98042822D0FFE70C9802281ED0C1
:1045B000FFE70C9810281AD0FFE70E9800680168F2
:1045C00041F400610160FFE7002003900E9800684D
:1045D000406903900E980068806903900398FFE794
:1045E0000E980068016821F48061016013E00E9864
:1045F0000068016841F480610160FFE700200290DB
:104600000E980068406902900E98006880690290D8
:104610000298FFE7FFE70E98006840680005002851
:104620001CD5FFE70C9810F5803F10D0FFE70C98E1
:1046300001280CD0FFE70C98082808D0FFE70C9859
:10464000102804D0FFE70C98202807D1FFE70E9828
:104650000068416841F480514160FFE736E00E9800
:104660000068016841F4806101600E98006840684C
:10467000000500281CD5FFE70C9810F5803F10D0EE
:10468000FFE70C9801280CD0FFE70C98082808D009
:10469000FFE70C98102804D0FFE70C98202807D1DA
:1046A000FFE70E980068416841F480514160FFE7E0
:1046B000FFE7002001900E980068406901900E9875
:1046C0000068806901900198FFE7FFE7FFE7FFE7D7
:1046D0000E9800210165FFE7FFE70DE0FFE70020EE
:1046E00000900E980068406900900E9800688069FC
:1046F00000900098FFE7FFE70FB0704781B000908F
:10470000009890F83E00402816D1FFE70098006D11
:1047100040B9FFE70098406C00F0FE00009909687E
:10472000086108E00098406C40F00100C0B20099B8
:1047300009680861FFE757E000980069B0F5804F0D
:1047400031D1FFE7009890F83D00212808D1FFE71C
:104750000098406C00F0FE0000990968086108E0CC
:104760000098406C40F00100C0B2009909680861EF
:10477000FFE70098406B28B1FFE70098406B806A24
:1047800048B9FFE70098806B60B1FFE70098806B45
:10479000806A38B1FFE700980068416841F4006121
:1047A0004160FFE71FE00098006D50B9FFE70098F7
:1047B000406C00F44070C009F0300099096808614D
:1047C00010E00098006D01280AD1FFE70098406CC6
:1047D00000F44070C009F13000990968086100E0F8
:1047E000FFE7FFE7FFE7FFE701B0704780B582B062
:1047F0000190019890F83D008DF803000198006D3C
:10480000E8B9FFE70198C06C01280BD1FFE70198D8
:10481000806CC0B20199096808610198016D02318C
:1048200001650BE00198806C80B2000A019909686B
:1048300008610198016D01310165FFE768E00198A9
:10484000006D01280BD1FFE70198806CC0B201997F
:10485000096808610198016D0131016557E001980F
:10486000006D02284ED1FFE79DF8030022280BD1EE
:10487000FFE701980068016841F4807101600198C8
:10488000016D013101653CE00198408D98B1FFE771
:104890009DF8030021280ED1FFE701980168406AC6
:1048A000007808610198416A013141620198418DA7
:1048B0000139418524E00198408DF8B9FFE79DF862
:1048C000030021281AD1FFE701980068416821F40C
:1048D000E061416001980068016841F40071016085
:1048E0000198002101630198202280F83D20019861
:1048F00080F83E100198FEF707FA00E0FFE7FFE7B7
:10490000FFE703E00198FFF73DF9FFE7FFE7FFE767
:1049100002B080BD81B000900098408D78B1FFE773
:104920000098006800690099496A08700098416A17
:10493000013141620098418D01394185FFE701B0A5
:104940007047000080B582B00190019890F83D005A
:104950008DF803000198408D48B3FFE70198006887
:1049600000690199496A08700198416A0131416200
:104970000198418D013941850198408DB0B9FFE71B
:104980009DF803002A2811D1FFE7019800684168CB
:1049900021F480614160019822210163019828215E
:1049A00080F83D100198FEF7B3F9FFE7FFE702B08A
:1049B00080BD000081B000900098408D70B1FFE78D
:1049C00000980168406A007808610098416A0131E6
:1049D00041620098418D01394185FFE701B0704780
:1049E00080B582B00190019890F83D008DF80300E9
:1049F0000198408D40B3FFE701980168406A007854
:104A000008610198416A013141620198418D013983
:104A100041850198408DB0B9FFE79DF80300292832
:104A200011D1FFE701980068416821F4806141607D
:104A30000198212101630198282180F83D100198F7
:104A4000FEF76AF9FFE7FFE702B080BD80B584B0EA
:104A50000390029100208DF80700039890F83D0024
:104A600000F02800282832D1FFE703980068416849
:104A700021F4806141609DF8080000F004000021ED
:104A8000B1EB900F04D1FFE701208DF80700FFE79D
:104A90009DF808000021B1EBD01F05D1FFE7039876
:104AA000C068ADF8040004E003988069ADF8040024
:104AB000FFE7FFE70398002180F83C10FFE7039829
:104AC0009DF80710BDF80420FDF71CFF13E0FFE779
:104AD00000200090039800684069009003980068E7
:104AE000806900900098FFE7FFE70398002180F8B5
:104AF0003C10FFE7FFE704B080BD000080B584B044
:104B00000390039890F83D008DF80B00039800681F
:104B1000416821F4E0614160FFE7002001900398C3
:104B200000684069019003980068016841F0010144
:104B300001600198FFE703980068016821F4806133
:104B40000160039800684068000500286DD5FFE704
:104B50009DF80B00222805D0FFE79DF80B002A28BE
:104B600031D1FFE70398806B00684068039948855E
:104B70000398408D30B1FFE70398016C41F00401C8
:104B80000164FFE703980068416821F40061416017
:104B90000398806BFDF736FB012813D0FFE70398DD
:104BA000806B43F62D21C0F6000141630398806BB2
:104BB000FDF7A8FA28B1FFE70398806B416B88479F
:104BC000FFE7FFE730E00398406B00684068039917
:104BD00048850398408D30B1FFE70398016C41F0A0
:104BE00004010164FFE703980068416821F4006153
:104BF00041600398406BFDF705FB012813D0FFE7E8
:104C00000398406B43F62D21C0F6000141630398E1
:104C1000406BFDF777FA28B1FFE70398406B416BD3
:104C20008847FFE7FFE7FFE7FFE70398408DE8B31A
:104C3000FFE703980068406900F004000121B1EB30
:104C4000900F0FD1FFE70398006800690399496A44
:104C500008700398416A013141620398418D01391E
:104C60004185FFE703980068406900F0400001219A
:104C7000B1EB901F0FD1FFE703980068006903991B
:104C8000496A08700398416A013141620398418D75
:104C900001394185FFE70398408D30B1FFE7039864
:104CA000016C41F004010164FFE7FFE70398006C29
:104CB00020B1FFE70398FEF777FF42E09DF80B0075
:104CC0002A280BD1FFE703980021016303982821CC
:104CD00080F83D100398FEF71BF8FFE7039890F863
:104CE0003D00282813D1FFE703980021CFF6FF717C
:104CF000C1620398002101630398202280F83D20BF
:104D0000039880F83E100398FDF7EEFF18E0039833
:104D1000006B222805D0FFE79DF80B0022280ED15A
:104D2000FFE70398002101630398202280F83D20CB
:104D3000039880F83E100398FDF7EAFFFFE7FFE7CE
:104D4000FFE704B080BD000083B001900020009018
:104D500040F22800C2F20000006848F21F51C5F27C
:104D6000EB11A0FB0101C80844F6D351C1F2620166
:104D7000A0FB0101880900EB80000090FFE700988C
:104D800001380090009848B9FFE70198016C41F0A4
:104D90002001016401208DF80B000DE0FFE7019870
:104DA0000068006800F40070B0F5007FE7D0FFE70E
:104DB00000208DF80B00FFE79DF80B0003B0704753
:104DC00080B500F0ABFA40F26000C2F2000001686A
:104DD00001310160B1F57A7F07DBFFE740F2600047
:104DE000C2F2000000210160FFE780BD81B040F603
:104DF0000010C2F2000018300090009800210160FD
:104E000000984160009881600098C160009801613D
:104E100000984161009881610098C1610098016229
:104E2000009841620098816200984FF6FF71C7F6C2
:104E30007F71C16200986FF40001016301B0704797
:104E4000F0B585B040F60010C2F2000018300490B2
:104E50000020039002900190049C20686168FBF799
:104E600015FA606104988468C5684669C16930466E
:104E7000FBF70CFA074628463146FBF70DFA0546C4
:104E800020463946FBF708FA2946FBF7ADF90290B0
:104E90000498C169816104984169C161029C0498C8
:104EA000C56A066B20463146FBF7F1FC002818BFA7
:104EB000264630462946FBF7DCFC002818BF35465D
:104EC00002950498006A0299FBF78EF90190019C03
:104ED0000498456A866A20463146FBF7D8FC0028CC
:104EE00018BF264630462946FBF7C3FC002818BFEA
:104EF0003546019501980499086205B0F0BD00009F
:104F000010B588B049F6A440C0F60000D0F800C043
:104F1000D0F804E08368C16802694469059404928A
:104F200003910293CDF804E0CDF800C08169C06917
:104F300007900691684600F027F903F069FFFEF735
:104F4000BBF908B010BD000080B540F26400C2F2A9
:104F500000004FF4FA7104F0D5F818B1FFE7FBF741
:104F600029FDFFE780BD000010B500F0E9FF4FF616
:104F70000001C0F2FF7101EB802040F6FC74C2F228
:104F8000000421460C22FEF7EFF9206845F2AA51F1
:104F9000C5F2AA5188420DD1FFE740F6FC70C2F27B
:104FA00000004168806840F22C02C2F200025060AA
:104FB000116013E040F6FC70C2F2000045F2AA5105
:104FC000C5F2AA51016040F22C01C2F200010A6848
:104FD00049688160426000F003F8FFE710BD0000FF
:104FE00080B540F22C00C2F200000168406840F633
:104FF000FC72C2F200029060516000F0A1FF4FF617
:105000000001C0F2FF7101EB8020FEF7DDF980BDE9
:1050100080B58AB009900891079206930020059008
:1050200004900390029001900190FFE70198099984
:1050300088420BDAFFE70798019900EBC10003F003
:1050400061FEFFE7019801300190EFE70020019039
:10505000FFE70198089988420BDAFFE70698019963
:1050600000EBC10003F04EFEFFE701980130019014
:10507000EFE7002003900190FFE70198099988422B
:105080001FDAFFE70798019900EBC100807918B992
:10509000FFE70120049002E002200490FFE7079858
:1050A000019900EBC100808802900798019950F89F
:1050B000310002A9FDF7A2FAFFE701980130019043
:1050C000DBE701200390002004900221059101906C
:1050D000FFE701980899884212DAFFE706980199DC
:1050E00000EBC100808802900698019950F83100C9
:1050F00002A9FDF783FAFFE7019801300190E8E784
:105100000AB080BD81B08DF803009DF8030000F067
:10511000030001B07047000080B582B08DF8030035
:105120009DF90300FFF7EEFF8DF802009DF80200E5
:1051300003281BD8DFE800F002080E1449F681505E
:10514000C0F60000019012E049F69D50C0F6000044
:1051500001900CE049F6B150C0F60000019006E065
:1051600049F66850C0F60000019000E0FFE70198A2
:1051700002B080BD81B08DF803009DF903000121CC
:1051800001EB900001B0704780B58AB0042108910E
:1051900000210791069005910898062804D8FFE79A
:1051A0000798072804D3FFE700208DF827007EE04A
:1051B000089840F20001C2F200010860079810B997
:1051C000FFE7012001E00798FFE740F20401C2F287
:1051D0000001086000200490FFE7049808998842C5
:1051E00015DAFFE7049840F2680CC2F2000C0CEBF1
:1051F000C002069B03EBC00153F830304CF830304E
:1052000048685060FFE7049801300490E5E700200B
:105210000390FFE703980799884215DAFFE70398A0
:1052200040F2DC2CC2F2000C0CEBC002059B03EB3D
:10523000C00153F830304CF8303048685060FFE718
:10524000039801300390E5E740F29800C2F20000B5
:10525000029000200190FFE7019823281AD8FFE769
:10526000029801990901012242540298019900EB28
:105270000110002141600298019A00EB0210816048
:105280000298019A00EB02100173FFE701980130C8
:105290000190E1E708980799069A059BFFF7B8FE89
:1052A00003F04EFF03F0C8FD8DF82700FFE70AB0BA
:1052B00080BD000082B0019001980068806801996B
:1052C00089880840401AB0FA80F040098DF8030040
:1052D0000198807940B9FFE79DF80300B0FA80F0AB
:1052E00040098DF80300FFE79DF8030002B0704706
:1052F00082B001908DF803109DF8030028B9FFE7F4
:10530000019881880068016105E00198818809049D
:1053100000680161FFE702B07047000070B582B01D
:1053200003F08AFD08B9FFE75EE200208DF8070070
:10533000FFE79DF8070040F20001C2F20001096892
:1053400088422FDAFFE740F2D824C2F20004207826
:1053500000EB400040F29805C2F2000505EB40105A
:105360009DF8071000EB0110067B9DF8070040F246
:105370006801C2F2000101EBC000FFF79BFF40EAA9
:105380004600217801EB410105EB41119DF8072012
:1053900001EB02110873FFE79DF8070001308DF85B
:1053A0000700C6E700208DF80700FFE79DF807001B
:1053B00040F20001C2F200010968884280F2CB810C
:1053C000FFE740F2D820C2F20000007800EB400076
:1053D00040F29801C2F2000101EB40109DF8071065
:1053E00000EB0110007B0007002840F08480FFE7FD
:1053F00040F2D820C2F20000017801EB410140F2F6
:105400009802C2F2000202EB41119DF8073001EB55
:10541000031100234B60007800EB400002EB4010CA
:105420009DF8071000EB01108068C8BBFFE740F251
:10543000D820C2F20000007800EB400040F2980152
:10544000C2F2000101EB40109DF807100901012292
:10545000425440F6FE00C2F200000078C007F0B1EE
:10546000FFE79DF8070040F20401C2F2000109685D
:1054700040F2D822C2F20002127800FB012102EBB6
:10548000420240F29803C2F2000303EB4212000111
:10549000105C00EB810040B200F0D0F9FFE7FFE7BD
:1054A00040F2D820C2F20000007800EB400040F249
:1054B0009801C2F2000101EB40109DF8071000EBCB
:1054C00001108068312815DCFFE740F2D820C2F2D5
:1054D0000000007800EB400040F29801C2F20001A9
:1054E00001EB40109DF8071000EB011081680131BD
:1054F0008160FFE728E140F2D820C2F20000007886
:1055000000EB400040F29801C2F2000101EB4010B4
:105510009DF8071000EB0110007B00F00F000F2832
:1055200040F01181FFE740F2D820C2F2000000787D
:1055300000EB400040F29801C2F2000101EB401084
:105540009DF8071000EB0110806831283CDCFFE774
:1055500040F2D820C2F20000007800EB400040F298
:105560009801C2F2000101EB40109DF8071000EB1A
:105570000110806840B3FFE740F2D820C2F200007B
:10558000017801EB410140F29802C2F2000202EB05
:1055900041119DF807301B010326CE549DF80710DA
:1055A00040F20403C2F200031B68007801FB03030E
:1055B00000EB400002EB40100901405C00EB83006F
:1055C00040B200F03BF93CE040F2D820C2F20000CB
:1055D000007800EB400040F29801C2F2000101EBBC
:1055E00040109DF8071000EB0110406840BBFFE73A
:1055F00040F2D820C2F20000017801EB410140F2F4
:105600009802C2F2000202EB41119DF807301B0123
:105610000026CE549DF8071040F20403C2F20003A6
:105620001B68007801FB030300EB400002EB401015
:105630000901405C00EB830040B200F0FFF8FFE797
:10564000FFE740F2D820C2F20000017801EB4101EF
:1056500040F29802C2F2000202EB41119DF80730BD
:1056600001EB031100238B60007800EB400002EB9C
:1056700040109DF8071000EB01104068B0F57A7FEC
:1056800015DAFFE740F2D820C2F20000007800EB04
:10569000400040F29801C2F2000101EB40109DF879
:1056A000071000EB01104168013141604AE040F20F
:1056B000D820C2F20000007800EB400040F29801D0
:1056C000C2F2000101EB40109DF8071000EB011041
:1056D0004068B0F57A7F34D1FFE740F2D820C2F2BB
:1056E0000000017801EB410140F29802C2F2000291
:1056F00002EB41119DF8073001EB03114FF4557394
:105700004B60017801EB410102EB41119DF807303C
:105710001B010226CE549DF8071040F20403C2F28A
:1057200000031B68007801FB030300EB400002EB61
:1057300040100901405C00EB830040B200F07EF8AD
:10574000FFE7FFE7FFE7FFE7FFE79DF8070001300E
:105750008DF807002AE640F20400C2F2000000685B
:10576000022841DBFFE740F2D820C2F200000178B6
:1057700001310170007840F20401C2F200010968B1
:105780000139884207DDFFE740F2D820C2F200006D
:1057900000210170FFE700208DF80700FFE79DF86A
:1057A000070040F20401C2F20001096888421ADAD7
:1057B000FFE79DF8071040F2DC20C2F2000000EB8A
:1057C000C10040F2D822C2F200021278891AB1FA5E
:1057D00081F14909FFF78CFDFFE79DF807000130D3
:1057E0008DF80700DBE7FFE702B070BD81B0FF2056
:1057F0008DF8030041F23860C2F20000817AC07A6D
:10580000814217D0FFE741F23860C2F20000817A8E
:10581000415C8DF80310817A0131CAB281720A2A83
:1058200007D3FFE741F23860C2F200000021817225
:10583000FFE7FFE79DF9030001B0704781B08DF8E5
:1058400003009DF8030041F23861C2F20001CA7AF8
:105850008854C87A0130C2B2C8720A2A07D3FFE757
:1058600041F23860C2F200000021C172FFE701B0CE
:105870007047000081B04FF080500090009841F2D6
:105880001C01C4F202010A6822EA0000086001B0AB
:105890007047000082B00190019841F21C01C4F2EF
:1058A00002010A68104308600868019908400090E6
:1058B000009802B07047000082B00190019841F258
:1058C0001C01C4F202010A681043086008680199CB
:1058D00008400090009802B07047000082B001902C
:1058E000019841F21C01C4F202010A6810430860E9
:1058F0000868019908400090009802B070470000C5
:1059000082B001200190019841F21C01C4F2020111
:105910000A681043086008680199084000900098E0
:1059200002B0704781B04FF08050009041F21C00EF
:10593000C4F20200006800990840401AB0FA80F0F2
:10594000400901B07047000082B00190019841F217
:105950001801C4F202010A6810430860086801993E
:1059600008400090009802B07047000082B001909B
:10597000019841F21801C4F202010A68104308605C
:105980000868019908400090009802B07047000034
:1059900082B04FF400600190019841F21801C4F206
:1059A00002010A68104308600868019908400090E5
:1059B000009802B07047000082B00190019841F257
:1059C0001801C4F202010A681043086008680199CE
:1059D00008400090009802B07047000082B0082094
:1059E0000190019841F21801C4F202010A681043C3
:1059F00008600868019908400090009802B070475C
:105A000082B00190019841F21801C4F202010A68C3
:105A1000104308600868019908400090009802B09F
:105A20007047000082B004200190019841F21801F3
:105A3000C4F202010A68104308600868019908402E
:105A40000090009802B0704781B04FF40070009051
:105A5000009840F21441C4F20101086001B070479F
:105A600081B00090009840F20441C4F201010A683C
:105A700022EA0000086001B07047000081B0009089
:105A8000009840F20C41C4F201010A6822EA0000C9
:105A9000086001B07047000081B00090009840F2AB
:105AA0000041C4F201010A6822EA0000086001B066
:105AB0007047000081B00090009840F20841C4F2A5
:105AC00001010A6822EA0000086001B07047000086
:105AD00081B00090009840F20441C4F201010A68CC
