:020000040800F2
:10000000D8090020010100081D0D0008150D000889
:10001000190D0008CD010008A5140008000000001B
:10002000000000000000000000000000D5130008E0
:10003000D1010008000000008D0D00082D140008FB
:100040001B0100081B0100081B0100081B01000820
:100050001B0100081B0100081B0100081B01000810
:100060001B0100081B0100081B0100081B01000800
:100070001B0100081B0100081B0100081B010008F0
:100080001B0100081B0100081B0100081B010008E0
:100090001B0100081B0100081B0100081B010008D0
:1000A0001B0100081B0100081B0100081B010008C0
:1000B0001B0100081B0100081B0100081B010008B0
:1000C0001B0100081B0100081B0100081B010008A0
:1000D0001B0100081B0100081B0100081B01000890
:1000E0001B0100081B0100081B010008DFF80CD0F1
:1000F00000F054F800480047751B0008D80900209C
:100100000648804706480047FEE7FEE7FEE7FEE7B1
:10011000FEE7FEE7FEE7FEE7FEE7FEE7A1140008C4
:10012000ED00000840EA01039B0703D009E008C97D
:10013000121F08C0042AFAD203E011F8013B00F8AC
:10014000013B521EF9D27047D2B201E000F8012BF8
:10015000491EFBD270470022F6E710B513460A4647
:1001600004461946FFF7F0FF204610BD10B50022E7
:1001700000E0521C835C8C5CA34201D1002BF8D1BF
:10018000D8B2E1B2401A10BD034611F8012B00F8B5
:10019000012B002AF9D11846704700001CB5094808
:1001A0000090094801900546009C06E0E06840F098
:1001B000010394E8070098471034AC42F6D3FFF7E8
:1001C00099FF0000E41E0008041F0008FFE7FEE797
:1001D0007047000081B0EFF3108072B60090FFE727
:1001E000FEE7000080B584B0039000F01DF8029097
:1001F000039801900198013048B1FFE740F20400F4
:10020000C2F200000178019808440190FFE7FFE77F
:1002100000F00AF80299401A0199884201D2FFE7DA
:10022000F6E704B080BD000040F2D040C2F200000A
:100230000068704740F20400C2F20000027840F209
:10024000D041C2F200010868104408607047000005
:1002500080B542F20001C4F20201086840F01000CB
:100260000860032000F07CF80F2000F005F800F093
:100270003BF8002080BD000080B582B0009040F2C5
:100280000000C2F20000006840F20401C2F2000166
:100290000A784FF47A71B1FBF2F1B0FBF1F000F0A3
:1002A00031FD20B1FFE701208DF8070018E000982C
:1002B0000F280DD8FFE700994FF0FF30002200F023
:1002C00035F8009840F20801C2F20001086003E02E
:1002D00001208DF8070003E000208DF80700FFE7FC
:1002E0009DF8070002B080BD82B0FFE741F2180020
:1002F000C4F20200016841F001010160006800F0F1
:10030000010001900198FFE7FFE741F21C00C4F2F1
:100310000200016841F080510160006800F08050E7
:1003200000900098FFE702B07047000080B586B0EB
:100330008DF81700049103920020029001F0BEFB9B
:1003400002909DF91700019002980499039A00F019
:10035000E7FC0146019801F0B9FB06B080BD000042
:1003600080B582B00190019801F0D2FB02B080BD4F
:1003700001F0ECFB80B584B002900191029820B9A5
:10038000FFE701208DF80F001BE1019842F2000108
:10039000C4F20201096801F00701884216D9FFE79B
:1003A00042F20000C4F20200016821F00701019A44
:1003B00011430160006800F007000199884204D0F1
:1003C000FFE701208DF80F00FBE0FFE702980078BF
:1003D000800700282AD5FFE7029800784007002808
:1003E00009D5FFE741F20401C4F20201086840F4B4
:1003F000E0600860FFE7029800780007002809D550
:10040000FFE741F20401C4F20201086840F46050C1
:100410000860FFE741F20401C4F20201086820F01D
:10042000F000029A926810430860FFE70298007893
:10043000C007002860D0FFE70298406801280ED16D
:10044000FFE741F20000C4F20200006880030028C8
:1004500004D4FFE701208DF80F00B2E021E00298FC
:10046000406802280ED1FFE741F20000C4F202000A
:1004700000688001002804D4FFE701208DF80F00F8
:100480009FE00DE041F20000C4F202000068800726
:10049000002804D4FFE701208DF80F0091E0FFE76A
:1004A000FFE741F20401C4F20201086820F00300F2
:1004B000029A526810430860FFF7B6FE0090FFE70B
:1004C00041F20400C4F20200006800F00C0002993E
:1004D0004968B0EB810F0ED0FFE7FFF7A5FE00994A
:1004E000401A41F28931884204D3FFE703208DF896
:1004F0000F0066E0E4E7FFE7019842F20001C4F272
:100500000201096801F00701884216D2FFE742F2B2
:100510000000C4F20200016821F00701019A1143B2
:100520000160006800F007000199884204D0FFE7ED
:1005300001208DF80F0044E0FFE7029800784007A3
:1005400000280CD5FFE741F20401C4F2020108685B
:1005500020F4E060029AD26810430860FFE7029836
:100560000078000700280DD5FFE741F20401C4F22E
:100570000201086820F46050029A126940EAC20041
:100580000860FFE700F022F841F20401C4F2020122
:100590000968C9B20A0941F66C51C0F60001895CCC
:1005A000C84040F20001C2F20001086040F20800B9
:1005B000C2F200000068FFF75FFE00208DF80F0018
:1005C000FFE79DF80F0004B080BD000086B000205A
:1005D0000590049003900290019041F20400C4F24F
:1005E000020000680590059800F00C00014600919B
:1005F00000283FD0FFE70098042804D0FFE70098C8
:10060000082806D037E041F20020C0F27A000190BD
:1006100037E00598C0F3834141F67C50C0F60000F6
:10062000405C02909DF81600C007C0B1FFE741F2A0
:100630000400C4F202000068C0F3404141F68C504F
:10064000C0F60000405C0490029841F20021C0F224
:100650007A0148430499B0FBF1F0039007E0029857
:1006600040F60011C0F23D0148430390FFE70398B4
:10067000019006E0FFE741F20020C0F27A0001900D
:10068000FFE7019806B0704780B586B004900498E3
:1006900020B9FFE701208DF817002EE304980078B9
:1006A000C007002800F0AE80FFE741F20400C4F26A
:1006B0000200006800F00C00042813D0FFE741F2AC
:1006C0000400C4F20200006800F00C0008281BD1EE
:1006D000FFE741F20400C4F202000068C0030028F2
:1006E00012D5FFE741F20000C4F202000068800367
:1006F000002808D5FFE70498406820B9FFE70120EB
:100700008DF81700F9E27CE0FFE704984068B0F547
:10071000803F09D1FFE741F20001C4F202010868FD
:1007200040F48030086032E00498406868B9FFE720
:1007300041F20001C4F20201086820F48030086030
:10074000086820F48020086020E004984068B0F534
:10075000A02F0DD1FFE741F20001C4F202010868A9
:1007600040F480200860086840F4803008600CE0A5
:1007700041F20001C4F20201086820F480300860F0
:10078000086820F480200860FFE7FFE7FFE7FFE745
:1007900004984068D0B1FFE7FFF746FD0390FFE7FC
:1007A00041F20000C4F202000068800300280CD46B
:1007B000FFE7FFF739FD0399401A652804D3FFE7E7
:1007C00003208DF8170098E2EAE719E0FFF72CFD07
:1007D0000390FFE741F20000C4F2020000688003CA
:1007E00000280CD5FFE7FFF71FFD0399401A652885
:1007F00004D3FFE703208DF817007EE2EAE7FFE766
:10080000FFE7FFE7049800788007002840F18D801B
:10081000FFE741F20400C4F20200006810F00C0F80
:1008200013D0FFE741F20400C4F20200006800F0B8
:100830000C00082829D1FFE741F20400C4F20200AD
:100840000068C003002820D4FFE741F20000C4F292
:10085000020000688007002809D5FFE704980069B6
:10086000012804D0FFE701208DF8170045E241F28E
:100870000001C4F20201086820F0F800049A5269ED
:1008800040EAC2000860FFE74EE00498006958B3F0
:10089000FFE70021C4F2422101200860FFF7C4FCF9
:1008A0000390FFE741F20000C4F2020000688007F5
:1008B00000280CD4FFE7FFF7B7FC0399401A032880
:1008C00004D3FFE703208DF8170016E2EAE741F2B0
:1008D0000001C4F20201086820F0F800049A52698D
:1008E00040EAC20008601EE00021C4F2422100205C
:1008F0000860FFF799FC0390FFE741F20000C4F2A3
:1009000002000068800700280CD5FFE7FFF78CFC89
:100910000399401A032804D3FFE703208DF817003A
:10092000EBE1EAE7FFE7FFE7FFE70498007800075D
:10093000002848D5FFE70498806918B3FFE740F224
:100940008041C4F2422101200860FFF76DFC039052
:10095000FFE741F22400C4F202000068800700288B
:100960000CD4FFE7FFF760FC0399401A032804D377
:10097000FFE703208DF81700BFE1EAE7012000F050
:1009800007FA1FE040F28041C4F2422100200860D3
:10099000FFF74AFC0390FFE741F22400C4F2020093
:1009A0000068800700280CD5FFE7FFF73DFC03999E
:1009B000401A032804D3FFE703208DF817009CE1B9
:1009C000EAE7FFE7FFE7049800784007002840F1D6
:1009D000D880FFE700208DF8070041F21C00C4F228
:1009E00002000068C000002813D4FFE7FFE741F2CF
:1009F0001C00C4F20200016841F0805101600068EF
:100A000000F0805000900098FFE701208DF807006B
:100A1000FFE747F20000C4F200000068C0050028AC
:100A200022D4FFE747F20001C4F20001086840F455
:100A300080700860FFF7F8FB0390FFE747F20000C3
:100A4000C4F200000068C00500280CD4FFE7FFF7DF
:100A5000EBFB0399401A652804D3FFE703208DF8C8
:100A600017004AE1EAE7FFE7FFE70498C0680128BA
:100A700009D1FFE741F22001C4F20201086840F009
:100A80000100086031E00498C06868B9FFE741F2EE
:100A90002001C4F20201086820F001000860086823
:100AA00020F0040008601FE00498C06805280DD1FC
:100AB000FFE741F22001C4F20201086840F004009F
:100AC0000860086840F0010008600CE041F2200175
:100AD000C4F20201086820F001000860086820F0F4
:100AE00004000860FFE7FFE7FFE7FFE70498C0683E
:100AF000E0B1FFE7FFF798FB0390FFE741F220002A
:100B0000C4F202000068800700280ED4FFE7FFF758
:100B10008BFB0399401A41F28931884204D3FFE7E5
:100B200003208DF81700E8E0E8E71BE0FFF77CFB07
:100B30000390FFE741F22000C4F202000068800742
:100B400000280ED5FFE7FFF76FFB0399401A41F22B
:100B50008931884204D3FFE703208DF81700CCE0E9
:100B6000E8E7FFE79DF80700012809D1FFE741F218
:100B70001C01C4F20201086820F080500860FFE701
:100B8000FFE70498C069002800F0B380FFE741F256
:100B90000400C4F20200006800F00C00082800F015
:100BA0008280FFE70498C06902285CD1FFE76021DA
:100BB000C4F2422100200860FFF736FB0390FFE7F4
:100BC00041F20000C4F202000068800100280CD548
:100BD000FFE7FFF729FB0399401A032804D3FFE737
:100BE00003208DF8170088E0EAE70498006AB0F562
:100BF000803F0CD1FFE741F20401C4F20201086812
:100C000020F40030049A926810430860FFE741F234
:100C10000401C4F20201086820F47410049B1A6AEB
:100C20005B6A1A43104308606021C4F2422101202C
:100C30000860FFF7F9FA0390FFE741F20000C4F201
:100C400002000068800100280CD4FFE7FFF7ECFAEF
:100C50000399401A032804D3FFE703208DF81700F7
:100C60004BE0EAE71EE06021C4F242210020086068
:100C7000FFF7DAFA0390FFE741F20000C4F2020046
:100C80000068800100280CD5FFE7FFF7CDFA039933
:100C9000401A032804D3FFE703208DF817002CE047
:100CA000EAE7FFE724E00498C069012804D1FFE7E0
:100CB00001208DF8170020E041F20400C4F2020088
:100CC00000680290029800F480300499096A884212
:100CD00008D1FFE7029800F470100499496A88422D
:100CE00004D0FFE701208DF8170006E0FFE7FFE7DB
:100CF000FFE700208DF81700FFE79DF8170006B00A
:100D000080BD000080B582B00190019800F064FBC6
:100D100002B080BDFFE7FEE7FFE7FEE7FFE7FEE783
:100D200088B0079006910592079800F0070004909C
:100D30000498C0F10700052803D3FFE704200190C1
:100D400004E00498C0F107000190FFE701980390C8
:100D500004980430062803D8FFE70020009003E041
:100D6000049803380090FFE70098029006980399D2
:100D7000012202FA01F101390840029B98400599CD
:100D80009A40013A1140084308B07047704700008C
:100D900082B00190019840F20001C2F2000109689E
:100DA000C90844F6D352C1F26202A1FB02218909AB
:100DB00048430090FFE700BFFFE70098411E009105
:100DC0000028F8D1FFE702B07047000080B582B07C
:100DD000FFE740F21000C2F20000007818B9FFE708
:100DE00000F062FBFFE7FFE740F21001C2F20001F2
:100DF000086F01900198C96E884203D0FFE7012077
:100E0000009002E000200090FFE7009802B080BD53
:100E100080B500F049FB80BD80B586B00590049197
:100E20000392EFF311804FF0200181F311880190BC
:100E300005980499039A00F007F80290019880F34E
:100E40001188029806B080BD80B58CB00B900A91D5
:100E50000992FFE740F21000C2F20000007818B9D2
:100E6000FFE700F021FBFFE7FFE70B9800EB4001F5
:100E700040F21000C2F2000000EBC10060300390AD
:100E80000A9804900398006906900398C06805903A
:100E90000020079006980599884234D9FFE7039807
:100EA00080680699401A089008980999884203D2E8
:100EB000FFE70898029002E009980290FFE7029885
:100EC0000890049803994968069A1144089AFFF714
:100ED00029F9089907980844079008990498084444
:100EE000049008990998401A0990089906980844AE
:100EF0000690069803998968884203D1FFE700208D
:100F00000690FFE7FFE705980699401A08900898B1
:100F10000999884203D2FFE70898019002E00998F6
:100F20000190FFE7019808900898C8B1FFE704987E
:100F300003994968069A1144089AFFF7F3F808994B
:100F40000798084407900899049808440490089961
:100F50000998401A09900899069808440690FFE7F6
:100F6000079820B1FFE7069803990861FFE7079803
:100F70000CB080BD80B586B0059004910392FFE768
:100F800040F21000C2F20000007818B9FFE700F04C
:100F90008BFAFFE7FFE7EFF311804FF0200181F3B9
:100FA0001188019005980499039A00F007F80290BF
:100FB000019880F31188029806B080BD80B58AB090
:100FC00009900891079208980490099800EB400155
:100FD00040F21000C2F2000000EBC1001830039094
:100FE00003984069029040B1FFE70298012819D0A8
:100FF000FFE7029802282CD032E0039800F09CFA18
:10100000059005980799884203D2FFE700200690D3
:1010100007E00798069003980499079A00F012FDDC
:10102000FFE720E0039800F087FA059005980799FC
:10103000884203D2FFE70598019002E007980190EB
:10104000FFE70198069003980499069A00F0FAFCCD
:1010500009E003980499079A00F086FC069002E0E4
:1010600000200690FFE706980AB080BD82B080B5E8
:1010700084B0079306920390029106A8009003980B
:1010800002996A4600F008F80190019804B0BDE8A2
:10109000804002B07047000080B5A4B02390229138
:1010A000219207A81B9040201C9000201D9023999E
:1010B0001F911E90FFE7229800788DF883002298F8
:1010C000013022909DF8830008B9FFE76DE19DF89B
:1010D0008300252840F05C81FFE700201890012064
:1010E0001A90FFE7229800788DF883009DF883001E
:1010F0002338014604910D2829D80499DFE801F02E
:101100001F2727272727272717270727270F18985D
:1011100040F0010018902298013022901AE01898AF
:1011200040F00200189022980130229012E01898A6
:1011300040F0040018902298013022900AE018989C
:1011400040F00800189022980130229002E0002020
:101150001A90FFE7FFE71A980028C3D1FFE70020A5
:101160001790FFE7229800788DF883009DF88300A0
:10117000302805DBFFE79DF883003A2801DBFFE715
:1011800010E0229801302290179800EB80019DF822
:10119000830000EB410030381790FFE70120002862
:1011A000E0D1FFE700201990229800788DF88300A5
:1011B0009DF883002E2825D1FFE722980130229048
:1011C000FFE7229800788DF883009DF8830030288F
:1011D00005DBFFE79DF883003A2801DBFFE710E01D
:1011E000229801302290199800EB80019DF883002D
:1011F00000EB410030381990FFE701200028E0D1D2
:10120000FFE7FFE7229800788DF88300FFE79DF85D
:1012100083006C2805D0FFE79DF88300682808D17B
:10122000FFE7229801302290229800788DF8830001
:1012300000E004E0FFE701200028E8D1FFE79DF887
:10124000830001460391252800F09880FFE703986A
:1012500058284FD0FFE70398632814D0FFE703987E
:1012600064281FD0FFE70398702876D0FFE7039823
:10127000732853D0FFE70398752827D0FFE703981A
:10128000782837D07FE0219A1068011D116000682E
:101290001A901A988DF81B009DF81B101BA800F0DF
:1012A00027FB71E0219A1068011D116000681A90F7
:1012B0001A99199B1798DDF860C06A46C2F804C0F5
:1012C00010601BA80A2200F057F95DE0219A10680F
:1012D000011D116000681A901A99199B1798DDF882
:1012E00060C06A46C2F804C010601BA80A2200F061
:1012F00029FA49E0219A1068011D116000681A90CE
:101300001A99199B1798DDF860C06A46C2F804C0A4
:1013100010601BA8102200F015FA35E0219A106821
:10132000011D116000680590FFE7059800788DF8B1
:1013300083000598013005909DF8830008B9FFE708
:101340000AE09DF883101BA800F0D2FAFFE71E9870
:10135000B0F1FF3FE9DCFFE716E0219A1068011DBC
:10136000116000681A901A996846002242600823AA
:1013700003601BA8102200F0E5F905E01BA8252159
:1013800000F0B6FA00E0FFE722980130229005E075
:101390009DF883101BA800F0ABFAFFE7FFE71E984B
:1013A000B0F1FF3F3FF787AEFFE71E9801280EDB45
:1013B000FFE71D9830B1FFE723981D9A07A9FFF7B3
:1013C000D9FDFFE71D991E9808441E90FFE71E985F
:1013D00024B080BD7047000080B582B000900098B6
:1013E0000138B0F1807F03D3FFE70120019019E0BD
:1013F000009801384EF21401CEF2000108604FF05F
:10140000FF300F2100F062FB4EF21801CEF2000116
:10141000002008604EF21002CEF200020721116097
:101420000190FFE7019802B080BD000080B5FEF793
:1014300001FF40F2CC41C2F20001086801300860AF
:1014400080BD000080B590B006A800902821FEF76E
:1014500082FE00980021059104910391029101916F
:101460000222069201220A9210220B920D91FFF79E
:101470000BF918B1FFE7FEF7ADFEFFE70F20019073
:101480000021029103910491059101A8FEF772FFDA
:1014900018B1FFE7FEF79EFEFFE710B080BD000029
:1014A00070470000FFE7FEE780B582B040F2100011
:1014B000C2F200000190019903200861019948617E
:1014C000019841F6DA61C0F600018161019A40F2AB
:1014D000C800C2F20000D061019A4FF4806010622F
:1014E000019A00209062019A5062019AD062019A9A
:1014F0001166019A40F2B801C2F200015166019AE8
:1015000010219166019908670199C8660199486799
:101510000198073041F6D661C0F60001FEF734FEAF
:10152000019841F6CF61C0F60001FEF72DFE01994A
:101530002020887102B080BD84B0039003980069B8
:1015400002900398C068019002980199884209D8D6
:10155000FFE7039881680198C04308440299084452
:10156000009005E002990198C04308440090FFE70D
:10157000009804B07047000010B58CB0DDF83CC096
:10158000DDF838C00B900A91099208930A98B0F1DF
:10159000FF3F04DCFFE70A984042059002E00A980A
:1015A0000590FFE70598069001200790FFE7069851
:1015B0000999884209DBFFE70698099990FBF1F049
:1015C0000690079801300790F1E70898079988423C
:1015D00003D9FFE708980790FFE70E9870B1FFE77F
:1015E0000A98002806D4FFE79DF83C004007002831
:1015F00004D5FFE70E9801380E90FFE79DF83C00F8
:101600008007002803D5FFE7089858B3FFE79DF847
:101610003C00C00730BBFFE70E9810B3FFE7FFE7C1
:101620000E990020049041B1FFE707990E9A00201F
:10163000914238BF01200490FFE70498C00778B1B9
:10164000FFE70E9801380E900B98202100F050F91A
:101650000B98C068B0F1FF3F01DCFFE700E0DFE777
:10166000FFE7FFE70B98C068002869D4FFE70A98F6
:10167000B0F1FF3F08DCFFE70A9840420A900B9860
:101680002D2100F035F90CE09DF83C0040070028C2
:1016900005D5FFE70B982B2100F02AF900E0FFE7C2
:1016A000FFE70B98C068002849D4FFE79DF83C008D
:1016B000800700282ED5FFE79DF83C00C00748BBF7
:1016C000FFE7089830BBFFE70E9810B3FFE7FFE78E
:1016D0000E990020039041B1FFE707990E9A002070
:1016E000914238BF01200390FFE70398C00778B10B
:1016F000FFE70E9801380E900B98302100F0F8F8B3
:101700000B98C068B0F1FF3F01DCFFE700E0DFE7C6
:10171000FFE7FFE70B98C06800280FD4FFE70B989E
:101720000A99099A089BDDF838C00F9CEE46CEF85E
:101730000440CEF800C000F005F8FFE7FFE7FFE740
:101740000CB010BD80B58CB0DDF83CC0DDF838C001
:101750000B900A91099208930A980590012006902F
:101760000490FFE705980999884209D3FFE7059897
:101770000999B0FBF1F00590049801300490F1E76D
:1017800008980499884203D9FFE708980490FFE776
:101790009DF83C00C007C0BBFFE70E98A0B3FFE771
:1017A0009DF83C008007002807D5FFE7089820B97E
:1017B000FFE730208DF80F0003E020208DF80F00A8
:1017C000FFE7FFE70E990020029041B1FFE704997F
:1017D0000E9A0020914238BF01200290FFE7029844
:1017E000C00780B1FFE70E9801380E900B989DF866
:1017F0000F1000F07DF80B98C068B0F1FF3F01DCDE
:10180000FFE700E0DEE7FFE7FFE70B98C06800288E
:101810006CD4FFE7FFE70898022804D3FFE7089895
:10182000013808900BE00A980699B0FBF1F0079098
:1018300007980999884201D2FFE705E0FFE7099977
:10184000069848430690E6E7FFE70A980699B0FB3A
:10185000F1F00790079806990A9A00FB11200A9068
:101860000B98079A41F68E51C0F60001895C00F092
:101870003FF80B98C068B0F1FF3F01DCFFE709E0DB
:1018800009990698B0FBF1F00690FFE7069800284A
:10189000DBD1FFE79DF83C00C00730B3FFE70E98AF
:1018A00010B3FFE7FFE70E990020019041B1FFE779
:1018B00004990E9A0020914238BF01200190FFE761
:1018C0000198C00778B1FFE70E9801380E900B9889
:1018D000202100F00DF80B98C068B0F1FF3F01DC4B
:1018E000FFE700E0DFE7FFE7FFE7FFE70CB080BDC1
:1018F00080B584B003908DF80B1003988068019038
:10190000019801300399496888420FD8FFE79DF894
:101910000B0003990968019A8854019801300399D2
:1019200088600399C8680130C860FFE70398416880
:101930008068884215D1FFE70398016882680069D2
:10194000FFF718FB03998968884205D0FFE70399E0
:101950004FF0FF30C86003E0039900208860FFE784
:10196000FFE704B080BD000080B58AB009900891FF
:101970000792002005900998C0680390FFE7099836
:101980000069049004980399884206D9FFE70499F6
:101990000398C0430844069008E0099881680398BA
:1019A000049A801AC04308440690FFE706980999F4
:1019B0008968039A891A884203D2FFE70698029041
:1019C00005E0099880680399401A0290FFE70298A1
:1019D000069006980799884203D2FFE7069801907F
:1019E00002E007980190FFE7019806900998406887
:1019F000039908440899069AFEF794FB06990598FE
:101A00000844059006990898084408900699079894
:101A1000401A07900699039808440390039809997F
:101A20008968884203D1FFE700200390FFE703980D
:101A30000999C860FFE707980028A0D1FFE705983B
:101A40000AB080BD80B586B00590049103920598D8
:101A5000C0680190059880680199401A009000982C
:101A6000039988420ED9FFE7059840680199084418
:101A70000499039AFEF756FB0198039908440599C7
:101A8000C86019E0009802900598406801990844E0
:101A90000499029AFEF746FB03980099401A0290B7
:101AA000059840680499009A1144029AFEF73AFB9F
:101AB00002980599C860FFE706B080BD4EF60C504D
:101AC000CEF200000068C0F30220704782B08DF8AB
:101AD000070000919DF9070000280AD4FFE700984D
:101AE00000019DF907104EF20042CEF20002885428
:101AF0000BE0009800019DF8071001F00F014EF671
:101B00001452CEF200028854FFE702B07047000082
:101B100083B00290029800F0070000904EF60C513E
:101B2000CEF200010868019001984FF6FF021040C4
:101B300001900198009A40EA02200022C0F2FA5275
:101B4000104301900198086003B07047BFF34F8FB6
:101B50004EF60C51CEF20001086800F4E060042259
:101B6000C0F2FA5210430860BFF34F8FFFE700BF87
:101B7000FDE7000080B592B0002005901190FEF7BF
:101B800067FBFFF75FFCFFF743F9059841F600613B
:101B9000C0F60001FFF76AFA059841F65F61C0F6EA
:101BA000000141F6B062C0F6000241F6A763C0F63C
:101BB0000003FFF75BFA059841F69E51C0F600015D
:101BC000FFF754FA059841F6EB51C0F60001FFF714
:101BD0004DFAFFE740F2C841C2F200010868013047
:101BE000086040F2CC40C2F200000068B0F57A7F95
:101BF000C0F0A980FFE740F2CC41C2F20001002012
:101C0000086040F2C841C2F2000104910A6841F63E
:101C10008A61C0F60001FFF729FA0499D1F800C0E3
:101C200048F21F50C5F2EB10ACFB0032520964239E
:101C300002FB13C2FA3210920A68A2FB001080095C
:101C4000C82100FB112000F5C8700F9010984CF6C9
:101C5000CD41CCF6CC41A0FB0132D20802EB82038D
:101C6000A0EB43030F98A0FB01C14FEAD10C0CEB92
:101C70008C01A0EB41006946C1F800C0486041F604
:101C80006E61C0F600010120FFF7F0F9FFF79EF842
:101C9000002857D0FFE7022007A91F22FFF7BCF852
:101CA0000690069801284CDBFFE7069907AA0392E5
:101CB0000020505441F62E61C0F60001FFF7D6F91E
:101CC000039841F6BC61C0F60001FEF74FFA40B937
:101CD000FFE741F62161C0F600010020FFF7C6F9D9
:101CE0002EE041F6C161C0F6000107A8FEF73EFAFA
:101CF00040B9FFE741F6D451C0F600010020FFF7DC
:101D0000B5F91CE041F6C961C0F6000107A8FEF76D
:101D10002DFA50B9FFE741F6BF51C0F6000100208F
:101D2000FFF7A4F9FEF724FB08E041F64361C0F693
:101D30000001002007AAFFF799F9FFE7FFE7FFE797
:101D4000FFE7FFE7FFE70120FEF74CFA42E702E07A
:101D500008C8121F08C1002AFAD170477047002036
:101D600001E001C1121F002AFBD1704700000000F2
:101D7000000000000102030406070809020304052D
:101D8000060708090A0B0C0D0E0F10100102303166
:101D900032333435363738394142434445464D4372
:101DA000553A2053544D333246313033433854364C
:101DB0002028436F727465782D4D33290D0A005B1E
:101DC000434D445D20526573657474696E672E2EB1
:101DD0002E0D0A005B434D445D2056657273696F9A
:101DE0006E3A20312E302E300D0A005254542043CA
:101DF00068616E6E656C733A20302D31350D0A00C6
:101E00003D3D3D2053544D333246313033433854F9
:101E100036205254542054657374203D3D3D0D0AC4
:101E2000005B434D445D20706F6E670D0A005B439D
:101E30004D445D2052656365697665643A2025737B
:101E40000D0A005B434D445D20556E6B6E6F776EDF
:101E500020636F6D6D616E643A2025730D0A004238
:101E600075696C643A2025732025730D0A0054456A
:101E70004D503D256C752E256C752C48554D493DB2
:101E8000256C752E256C750D0A005B494E464F5D1D
:101E9000204865617274626561743A206C6F6F707E
:101EA0003D256C750D0A0031373A34303A30310037
:101EB0004A756E20323020323032360070696E67DB
:101EC0000076657273696F6E007265736574005396
:101ED000454747455200525454005465726D696E2F
:101EE000616C0000041F0008000000200C000000CE
:101EF0004E1D0008101F000810000020C809000037
:101F00005E1D00080024F400010000001000000025
:0400000508000101ED
:00000001FF
