:020000040800F2
:10000000D809002001010008210900081909000889
:100010001D090008B90100087D1300080000000058
:100020000000000000000000000000005D13000858
:10003000BD01000800000000250900086113000848
:100040001B0100081B0100081B0100081B01000820
:100050001B0100081B0100081B0100081B01000810
:100060001B0100081B0100081B0100081B01000800
:100070001B0100081B0100081B0100081B010008F0
:100080001B0100081B0100081B0100081B010008E0
:100090001B0100081B0100081B0100081B010008D0
:1000A0001B0100081B0100081B0100081B010008C0
:1000B0001B0100081B0100081B0100081B010008B0
:1000C0001B0100081B0100081B0100081B010008A0
:1000D0001B0100081B0100081B0100081B01000890
:1000E0001B0100081B0100081B010008DFF80CD0F1
:1000F00000F04AF800480047A5150008D80900207C
:100100000648804706480047FEE7FEE7FEE7FEE7B1
:10011000FEE7FEE7FEE7FEE7FEE7FEE779130008ED
:10012000ED00000840EA01039B0703D009E008C97D
:10013000121F08C0042AFAD203E011F8013B00F8AC
:10014000013B521EF9D27047D2B201E000F8012BF8
:10015000491EFBD270470022F6E710B513460A4647
:1001600004461946FFF7F0FF204610BD30B504469F
:100170000020034600E05B1C934203D2E05CCD5CB0
:10018000401BF8D030BD00001CB50948009009485C
:1001900001900546009C06E0E06840F0010394E809
:1001A000070098471034AC42F6D3FFF7A3FF0000D6
:1001B000EC1800080C190008FEE70000704700006A
:1001C000B0B5044600F010F8054640F20000C2F257
:1001D00000000078611C18BF044400BF00F004F860
:1001E000401BA042FAD3B0BD40F2D440C2F200009E
:1001F0000068704740F2000040F2D441C2F20000B3
:10020000C2F2000100780A681044086070470000DC
:1002100080B542F20000C4F20200016841F0100112
:100220000160032000F072F80F2000F005F800F0E4
:1002300027F8002080BD000070B540F20006C2F231
:10024000000640F208013278C2F200014FF47A73DE
:100250000968B3FBF2F20446B1FBF2F1084600F084
:1002600045FB0F2C4FF0010508D838B94FF0FF308F
:1002700021460022002500F01DF87460284670BD5C
:1002800082B041F21800C4F20200016841F001019D
:100290000160016801F0010101910199416841F09B
:1002A00080514160406800F080500090009802B09A
:1002B0007047000010B54EF60C5CCEF2000CDCF876
:1002C0000030C3F3022E8EF00704042C28BF042450
:1002D000BEF103034FF0FF3E0EFA04F438BF0023D3
:1002E000A14399400EFA03F39A43114300F00F0221
:1002F00000F160430901043A03F5644362440028B5
:1003000048BF02F10C03197010BD00004EF60C51ED
:10031000CEF200010A684FF6FF031A4060F30A228A
:1003200042F0806040F0FD700860704701F024F9F1
:10033000002804BF012070472DE9F04381B042F24C
:100340000008C4F202080446D8F800000D4600F088
:10035000070081420CD9D8F8000020F0070028439C
:10036000C8F80000D8F8000000F00700A8426CD1DF
:10037000206841F204098107C4F2020917D5410738
:1003800005D5D9F8001041F4E061C9F80010010763
:1003900005D5D9F8001041F46051C9F80010D9F81A
:1003A0000010A26821F0F0011143C9F80010C00745
:1003B00042D1D8F8000000F0070085420CD2D8F8EE
:1003C000000020F007002843C8F80000D8F800001B
:1003D00000F00700A84238D12068410707D5D9F8B6
:1003E0000010E26821F4E0611143C9F80010000731
:1003F00008D5D9F80000216920F4605040EAC10016
:10040000C9F80000D9F8002002F00C00082841F2D9
:100410000020C0F27A004DD141F62803C2F3834197
:10042000C0F60003595CD20338D440F60010C0F285
:100430003D0048433EE000BF606859F8041C0228B4
:1004400008D0012826D1890306D4012001B0BDE8D7
:10045000F08300BF8901F8D5D9F8001021F003011D
:100460000843C9F80000FFF7BFFE064641F288378F
:10047000D9F80000616800F00C00B0EB810F98D053
:10048000FFF7B2FE801BB842F2D9032001B0BDE8ED
:10049000F08300BF8907D8D5DEE700BFD9F8002078
:1004A00041F62603C2F34042C0F600039A5C48437B
:1004B000B0FBF2F0D9F8001041F61602C1F30311B7
:1004C000C0F60002515C40F2080220FA01F140F24D
:1004D0000400C2F200000068C2F200021160FFF7DF
:1004E000ABFE002001B0BDE8F0830000002804BF8F
:1004F000012070472DE9F04182B00446007841F2B6
:100500000006C007C4F202060CD0706800F00C00B0
:10051000042840F081803068800303D5606800289B
:1005200000F04681207880071BD5706810F00C0F12
:1005300009D0706800F00C00082840F087807068CF
:10054000C00300F183803068800703D5206901284B
:1005500040F02E813068616920F0F80040EAC10067
:1005600030602078000713D4207840072CD4E56948
:10057000002D00F01881706800F00C00082840F091
:10058000A780012D40F00481012002B0BDE8F08178
:10059000A069002800F084800020C4F242200121DC
:1005A000C0F88014FFF720FE054600BF706A800780
:1005B00000F1B280FFF718FE401B0228F6D9032095
:1005C00002B0BDE8F08100BFF0695FEAC00808D45E
:1005D000F06940F08050F061F06900F080500090C8
:1005E000009847F20007C4F200073868C00549D4F4
:1005F000386840F480703860FFF7F6FD054600BFAC
:100600003868C0053ED4FFF7EFFD401B6428F7D9DA
:10061000032002B0BDE8F081706800F00C000828EB
:1006200003D17068C0033FF576AF61683068002978
:1006300000F00C81B1F5A02F00F00081B1F5803FF2
:1006400040F01A8140F480301CE100BF206900288E
:1006500040F20000C4F2422000F0888001210160D5
:10066000FFF7C2FD054600BF306880073FF572AF57
:10067000FFF7BAFD401B0228F6D9032002B0BDE8FF
:10068000F08100BFE168306A002900F09D800529F3
:1006900000F09280012940F0AF8040F00100B1E00D
:1006A0000020C4F242200021C0F88014FFF79CFD16
:1006B000054600BF706A80077FF556AFFFF794FDCF
:1006C000401B0228F6D9032002B0BDE8F08100BF2C
:1006D0000027C4F2422700203866FFF785FD022D6F
:1006E00005460DD13068800140F1DE80FFF77CFDCA
:1006F000401B02284FF00300F4D902B0BDE8F0819E
:10070000306880014FD5FFF76FFD401B02284FF086
:100710000300F5D9F1E700BF40F20800C2F2000083
:10072000006844F6D351C1F26201A0FB0101480AFE
:10073000019000BF00BF0198411E002801913FF4C5
:1007400013AF00BF0198411E002801913FF40CAF88
:1007500000BF0198411E002801913FF405AF00BF82
:100760000198411E00280191E4D1FDE600210160BD
:10077000FFF73AFD054600BF306880077FF5F1AE10
:10078000FFF732FD401B02284FF00300F4D9B4E715
:100790007068216A00F480328A4209D1616A00F4EB
:1007A0007010884204D1002002B0BDE8F08100BF83
:1007B000012002B0BDE8F08140F004003062306AF0
:1007C00040F001001EE000BF20F001003062306AFE
:1007D00020F004003062FFF707FD054641F288373C
:1007E000306A800720D5FFF7FFFC401BB8424FF06E
:1007F0000300F5D981E700BF20F001003062306AC4
:1008000020F004003062FFF7EFFC054641F2883724
:10081000306A800708D4FFF7E7FC401BB842F7D9DD
:10082000032002B0BDE8F081B8F1000F3FF59FAEA4
:10083000F06920F08050F06199E600BF40F480201C
:100840003060306840F480301CE000BF20F480301D
:100850003060306820F480203060FFF7C5FC05462A
:10086000306880037FF55EAEFFF7BEFC401B642856
:100870004FF00300F4D940E720F480303060306856
:1008800020F480203060FFF7AFFC0546306880031D
:100890003FF548AEFFF7A8FC401B6428F6D90320BB
:1008A00002B0BDE8F08100BF206AB0F5803F05D1FD
:1008B0007168A26821F40031114371607168626A45
:1008C00021F4741111430843706001203866FFF76A
:1008D0008BFC0446306880013FF565AFFFF784FC70
:1008E000001B02284FF00300F4D906E7411E002048
:1008F000B0EB116F1CBF012070474EF21002CEF218
:10090000000251604EF62351CEF20001F0230B702D
:100910000721906011607047FEE70000FEE70000CD
:10092000FEE700007047000040F22C00C2F2000019
:10093000017809B1016F38E080B5032241F6E20386
:100940000021C0F6000340F2D40C8162C0E9042209
:1009500000F11802C2F2000C4FF4806E82E80850D9
:1009600040F21802C2F200020132C0E9183245F228
:1009700052424FF0100CC0F254024162C162C0F802
:1009800068C0C166C0F8072044F24752C0F2520264
:10099000C0F8032044F25352C4F24772026020228E
:1009A000C0E91C118271BDE88040C06E081A18BFF2
:1009B0000120704780B540F22C00C2F200000321F4
:1009C00000238362C0E9041140F2180141F6E202FB
:1009D000C2F20001C0F60002013140F2D40E4FF421
:1009E000806CC0E9182145F25241C2F2000EC0E904
:1009F00008C34FF0100CC0F25401C0E9062EC362C8
:100A0000C0F868C0C366C0F8071044F24751C0F28E
:100A10005201C0F8031044F25351C4F2477101600F
:100A20002021C0E91C33817180BD00002DE9F04711
:100A30008946EFF311884FF0200181F3118840F2CD
:100A40002C01C2F200010B78144693BB032200254F
:100A50008D62C1E9042240F2180241F6E203C2F2BB
:100A60000002C0F6000340F2D4070132C2F20007D0
:100A7000C1E9183245F252424FF48066C1E90637A7
:100A80001027C0F25402C1E90865CD628F66CD66B9
:100A9000C1F8072044F24752C0F25202C1F80320C5
:100AA00044F25352C4F247720A602022C1E91C5535
:100AB0008A7100EB400001EBC000C56E076F00F1CA
:100AC000600AAF4214D9DAE90101CE1BA64228BF61
:100AD0002646C11948463246FFF724FBDAF80800DB
:100AE000F119B144A41B0F1A18BF0F4601E000BF53
:100AF0000026E81BA04238BF044644B1DAF80400DF
:100B00002246C1194846FFF70DFB264427443046CC
:100B1000002E18BFCAF8107088F31188BDE8F0875E
:100B200070B540F22C0EC2F2000E9EF800308C46DA
:100B3000BBBB032141F6E2030026C0F6000340F2EE
:100B4000D404CEF82860CEE904110EF11801C2F2E7
:100B500000044FF4806578C140F21801C2F2000130
:100B60000131CEE9183145F252411024C0F254014E
:100B7000CEF82C60CEF86840CEF86C60CEF8071046
:100B800044F24751C0F25201CEF8031044F25351DF
:100B9000C4F24771CEF800102021CEE91C668EF811
:100BA0000610EFF311844FF0200181F311886146A4
:100BB00000F004F884F3118870BD00002DE9F047BF
:100BC000924640F22C0200EB4000C2F2000202EB1F
:100BD000C002D06A0D46022802F118092CD0012863
:100BE0001ED0002840F08A80D9F80C40D9F81000B7
:100BF000A0427BD9E14308445045C0F07F80D9E949
:100C000001010E1BB24520445ED229465246FFF731
:100C100089FA04EB0A00C9F80C005046BDE8F087D9
:100C2000D9F80C40D9F81010A14233D9E243D9F8D1
:100C30000800114433E000BFD9F80C7054464FF05F
:100C4000000A00BFD9F81010D9F80800FA43B942D9
:100C50001144A0EB070698BF0144B14238BF0E46CD
:100C6000D9F80400A64228BF264638442946324611
:100C7000FFF758FAD9F80800F119A41B0F1AB2446B
:100C8000354418BF0F46002CC9F80C70DAD1504615
:100C9000BDE8F087D9F80800E2431144014451450A
:100CA00038BF8A46061BD9F80400B24520440BD24F
:100CB00029465246FFF736FA0AEB0400C9F80C0041
:100CC0005046BDE8F08700BF29463246FFF72AFAB2
:100CD000AAEB0608D9F80400A9194246FFF722FA40
:100CE0005046C9F80C80BDE8F08700BFD9F808105D
:100CF000E243104408445045BFF481AF0020BDE8F2
:100D0000F087000082B080B582B0CDE9042304AA48
:100D1000019201AA00F006F802B0BDE8804002B0DE
:100D2000704700002DE9F04F9BB0904606AA16923E
:100D30004022002504901A900DF1580900208A469F
:100D40001792CDE918550FE0011DC8F80010016891
:100D500048463B46CDE9006B00F012FB199851461E
:100D6000B0F1FF3F40F3F6821AF8013B252B1BD070
:100D7000002B00F0DF82DDE91720411C914207D8EB
:100D8000169A13541998179A013019900846189119
:100D90009042E3D116991A98FFF7C2FE189988423B
:100DA00040F0C2821895D9E701F1040A4FF0000B18
:100DB0001AF8031CA1F123030D2B00F25F8002221D
:100DC000DFE803F0085C5C5C5C5C5C5C0C5C0A5C0F
:100DD0005C0D00BF082202E0012200E004221AF8A4
:100DE000021C4BEA020BA1F123030D2B00F28C80B5
:100DF0000222DFE803F007898989898989890B89BB
:100E00000989890C082202E0012200E004221AF874
:100E1000011C4BEA020BA1F123030D2B00F2808091
:100E20000222DFE803F0077D7D7D7D7D7D7D0B7DEA
:100E3000097D7D0C082202E0012200E004229AF8DC
:100E400000104BEA020BA1F123030D2B5ED8022206
:100E5000DFE803F00E5C5C5C5C5C5C5C105C125C6C
:100E60005C0800BF4BEA020B0AF1040AA0E700BFCE
:100E70000822F7E70422F5E70122F3E7AAF1030AC3
:100E8000A1F13A0212F10A0F45D30AF1020A002633
:100E900006EB860201EB42021AF8011CA2F13006B1
:100EA000A1F13A0313F10A0F42D306EB860201EBDC
:100EB00042029AF80010A2F13006A1F13A0313F1B0
:100EC0000A0F37D306EB860201EB42029AF80110B3
:100ED000A2F13006A1F13A0313F10A0F76D306EB23
:100EE000860201EB42029AF80210A2F13006A1F14B
:100EF0003A0212F10A0F0AF1040AC9D2AAF1020A4F
:100F00002E2919D00AE000BFAAF1020AA1F13A0283
:100F100012F10A0FB9D200262E290DD0002761E068
:100F2000AAF1010AA1F13A0212F10A0FF3D3ACE7D8
:100F3000AAF1010A2E29F1D1524612F8011FA1F19E
:100F40003A0313F10A0F03D2002792464AE000BF8A
:100F50000AF1020A002700BF9AF8002007EB870376
:100F600001EB4301A2F13A0313F10A0FA1F130079B
:100F700038D39AF8011007EB870302EB4302A1F183
:100F80003A0313F10A0FA2F1300725D39AF8022091
:100F900007EB870301EB4301A2F13A0313F10A0FB8
:100FA000A1F130071CD307EB870102EB41029AF84D
:100FB0000310A2F13007A1F13A0212F10B0F0AF16E
:100FC000040AC9D8AAF1010A0CE000BF0AF1010A1B
:100FD0002E29B1D0A2E700BF0AF1010A02E000BF4A
:100FE0000AF1020A9AF8001001F0FB02682A43D1C4
:100FF0009AF8011001F0FB02682A40F04F809AF83D
:10100000021001F0FB02682A40F050809AF80310A9
:101010000AF1040A01F0FB02682AE3D0A1F15802A8
:10102000202A2FD8DFE802F0141212121212121224
:10103000121212184E12121212121212121212124E
:101040007E12128C124A1212140000BF86E600BFF4
:10105000D8F80000102277E6DDE91720D8F8003034
:10106000411C1F1D9142C8F800703FF691AE1A68EE
:10107000169B1A5486E600BF0AF1010AA1F1580234
:10108000202ACFD925297FF469AEDDE91720411C3C
:1010900091423FF67DAE169A252372E60AF1020AC6
:1010A000A1F15802202ABDD9ECE700BF0AF1030ADA
:1010B000A1F15802202A7FF6B5AFE3E7D8F8000087
:1010C0000A2241E6D8F8001041F2597C0A1DC8F8FE
:1010D0000020096848F29F640029C1F100028E4691
:1010E00048BF11460A2942F21075CDF2B71CC0F272
:1010F00001040392CDF814804EDB4FF0020800BFCC
:10110000642953D3B1F57A7F4AD3A9424CD3A1FBCA
:101110000C23A1424FEA533108F10408F0D8A8F19A
:10112000010843E0D8F800001022011DC8F80010A3
:101130000168484608230827CDE900750CE600BF82
:10114000D8F800100A1DC8F800200C6808E000BF9D
:1011500019981895B0F1FF3F04F101047FF7FEAD37
:101160002778002F3FF4FAADDDE917214B1C93429D
:1011700007D8169847541998179A013019461893AA
:1011800019909142E6D116991A98FFF7C9FC18995F
:101190008842DDD0C8E000BF4FF0010806E000BF84
:1011A00008F1010802E000BF08F10208474588BFC6
:1011B000B846744676B10021002C48BF01210BF0DF
:1011C000040241EA9201A6EB01095FEA8B7506D49D
:1011D0002EE000BF4FF000095FEA8B7528D53FBBBA
:1011E000002800F19B80B4F1FF3F4BDD5FEA4B71BB
:1011F0005BD5DDE917214B1C934208D816982B22AA
:1012000042541998179A013018931990194691422F
:1012100049D116991A98FFF783FC1899884240F033
:10122000838000201890199800283ED576E000BFF2
:101230005FEACB71D4D1B9F1000FD1D0A9F1010689
:101240004E4538BFC845CBD2DDE917214B1C934230
:1012500008D81698202242541998179A0130194636
:1012600018931990914209D116991A98FFF758FCD2
:101270001899884258D11998002118910028B14630
:10128000DCD54BE0DDE917214B1C934208D81698BA
:101290002D2242541998179A013019461893199023
:1012A000039C9142B5D0002838D4002D0CD416A848
:1012B00021460A223B46CDE9009B814600F060F8BA
:1012C000DDF81480002549E50BF001013943EED12A
:1012D000B9F1000FEBD0A9F101064E4538BFC84562
:1012E000E5D2DDE917214B1C934208D8169830222D
:1012F00042541998179A013019461893199091423F
:1013000009D116991A98FFF70BFC189988420BD14E
:101310001998002118910028B146DCD5DDF8148019
:1013200000250DF1580919E54FF0FF301BB0BDE85D
:10133000F08F00BF40B1189A52B1049806A9FFF788
:10134000EFFBDDE9181004E000201BB0BDE8F08FD2
:10135000002108441BB0BDE8F08F0000704700007A
:1013600080B5FEF747FF40F21000C2F200000168AE
:101370000131016080BD000070470000FEE7000001
:101380002DE9F04F81B0DDF828901F4615468B46B9
:101390009142044602D24FF001081FE04FF00408CA
:1013A000584600BFB0FBF5F0A84211D3B0FBF5F0F2
:1013B000A84211D3B0FBF5F0A8420FD3B0FBF5F073
:1013C00008F10408A842EDD2A8F1030806E000BF26
:1013D000A8F1020802E000BFA8F101080B994745F7
:1013E00088BFB846B9F1000F35D011F0010032D1F5
:1013F0002026880748BF30264FF0000A2020002F03
:1014000018BF064604E000BFE068B0F1FF3F22DDF0
:10141000B9F1000F1FD0C8451DD2D4E90120411CED
:10142000914207D822681654E06862680130E06093
:101430000846A1609042A9F10109E5D1216820691F
:10144000FFF76EFBA168884202D1C4F808A0DBE771
:101450004FF0FF30E060E068002858D4012601E03A
:10146000013F6E43022F01D3013F03E0BBFBF6F1C6
:10147000A9421BD3012F05FB06F601D9013F03E06A
:10148000BBFBF6F1A94211D3012F05FB06F601D9EA
:10149000013F03E0BBFBF6F1A94207D3012F05FB97
:1014A00006F6DDD8BBFBF6F1A942DAD2A2682EA778
:1014B0006168BBFBF6FA531C8B4209D817F80A0087
:1014C00021688854E068616801301A46A360E060D2
:1014D0008A4209D121682069FFF722FBA268904265
:1014E0000CD1E0680022A26000280AD4B6FBF5F116
:1014F0000AFB16BBB5420E46DAD902E04FF0FF30C8
:10150000E0600B99C90718BFB9F1000F02D101B013
:10151000BDE8F08F2025A9F101064E4538BFC8452A
:10152000F5D26168531C8B4207D820688554E06867
:10153000616801301A46A360E0608A4209D12168DF
:101540002069FFF7EDFAA168884207D1E068002220
:10155000A260B0F1FF3FB146DDDCD8E74FF0FF30CD
:10156000E06001B0BDE8F08F3031323334353637CA
:1015700038394142434445464EF60C50BFF34F8F35
:10158000CEF200000168042201F4E061C0F2FA52D8
:1015900011430160BFF34F8F00BF00BF00BF00BF0A
:1015A000FAE7000092B0FEF733FE08AC201D2421BC
:1015B000FEF7D1FD0220089001200C9010200D9024
:1015C000002520460F95FEF791FF28B1EFF310801C
:1015D00072B600BFFEE700BF0F20CDE9030503A8E8
:1015E0000021CDE905550795FEF7A2FE20B1EFF3E6
:1015F000108072B6FEE700BFFFF7DCF956A10020AD
:101600004FF00009FFF77EFB5CA160A262A30020FF
:10161000FFF778FB63A10020FFF774FB6AA10020AD
:10162000FFF770FB40F2100B48F21F5A41F6A20878
:10163000C2F2000BC5F2EB1A4CF6CD45C0F600081D
:101640000BE000BF41F664010020C0F60001FFF787
:1016500059FB00BF0120FEF7B3FDDBF804000130A9
:10166000CBF80400DBF80000B0F57A7FF2D3CBF8BA
:101670000090DBF8042041F6BE010020C0F6000116
:10168000FFF740FBDBF80400A0FB0A12DBF80410B4
:101690005209A1FB0A37642302FB1300BA09C823CD
:1016A000FA3002FB131182B26A43D20C02EB8203BE
:1016B000A0EB430083B201F5C87081B26943CF0C3F
:1016C00007EB8701A0EB410086B201204146CDE93E
:1016D0000076FFF717FBFFF727F90028BAD00220A2
:1016E00021461F22FFF7A2F90128B3DB41F6710161
:1016F00004F800900020C0F600012246FFF702FB2C
:10170000204637A10522FEF731FD00289AD0204659
:1017100035A10822FEF72AFD70B1204634A1062229
:10172000FEF724FD70B141F686010020C0F60001ED
:101730002246FFF7E7FA8DE741F64D010020C0F69B
:10174000000184E741F638010020C0F60001FFF7F0
:10175000D9FAFEF7EBFD7DE73D3D3D2053544D3377
:101760003246313033433854362052545420546575
:101770007374203D3D3D0D0A000000004275696C08
:10178000643A2025732025730D0A00004A756E20E7
:10179000323020323032360031373A33343A343254
:1017A000000000004D43553A2053544D333246312A
:1017B0003033433854362028436F727465782D4D8A
:1017C00033290D0A00000000525454204368616E12
:1017D0006E656C733A20302D31350D0A0000000023
:1017E00070696E670000000076657273696F6E0045
:1017F000726573657400000002E008C8121F08C11A
:10180000002AFAD170477047002001E001C1121F81
:10181000002AFBD170470000000000000000010218
:101820000304060708090102020304050607080964
:101830000A0B0C0D0E0F10105B434D445D205265DA
:1018400073657474696E672E2E2E0D0A005B434D0E
:10185000445D2056657273696F6E3A20312E302ECA
:10186000300D0A005B434D445D20706F6E670D0ABA
:10187000005B434D445D2052656365697665643A5B
:101880002025730D0A005B434D445D20556E6B6E41
:101890006F776E20636F6D6D616E643A2025730DF6
:1018A0000A0054454D503D256C752E256C752C480D
:1018B000554D493D256C752E256C750D0A005B490B
:1018C0004E464F5D204865617274626561743A20CE
:1018D0006C6F6F703D256C750D0A00534547474589
:1018E00052005465726D696E616C00000C1900083D
:1018F000000000200C000000F8170008181900086C
:1019000010000020C80900000818000801000000AD
:08191000100000000024F400A7
:0400000508000101ED
:00000001FF
